{
    "contractName": "SoritesPriceFuturesProvider",
    "abi": [
        {
            "inputs": [
                {
                    "internalType": "address",
                    "name": "initialConsumerAddress",
                    "type": "address"
                }
            ],
            "stateMutability": "nonpayable",
            "type": "constructor"
        },
        {
            "anonymous": false,
            "inputs": [
                {
                    "indexed": true,
                    "internalType": "address",
                    "name": "from",
                    "type": "address"
                },
                {
                    "indexed": true,
                    "internalType": "address",
                    "name": "to",
                    "type": "address"
                }
            ],
            "name": "OwnershipTransferRequested",
            "type": "event"
        },
        {
            "anonymous": false,
            "inputs": [
                {
                    "indexed": true,
                    "internalType": "address",
                    "name": "from",
                    "type": "address"
                },
                {
                    "indexed": true,
                    "internalType": "address",
                    "name": "to",
                    "type": "address"
                }
            ],
            "name": "OwnershipTransferred",
            "type": "event"
        },
        {
            "inputs": [],
            "name": "acceptOwnership",
            "outputs": [],
            "stateMutability": "nonpayable",
            "type": "function"
        },
        {
            "inputs": [
                {
                    "internalType": "string",
                    "name": "asset",
                    "type": "string"
                },
                {
                    "internalType": "address",
                    "name": "oracleAddress",
                    "type": "address"
                }
            ],
            "name": "addSupportedAsset",
            "outputs": [],
            "stateMutability": "nonpayable",
            "type": "function"
        },
        {
            "inputs": [
                {
                    "internalType": "string",
                    "name": "",
                    "type": "string"
                }
            ],
            "name": "chainlinkPriceOracles",
            "outputs": [
                {
                    "internalType": "address",
                    "name": "",
                    "type": "address"
                }
            ],
            "stateMutability": "view",
            "type": "function"
        },
        {
            "inputs": [],
            "name": "consumerAddress",
            "outputs": [
                {
                    "internalType": "address",
                    "name": "",
                    "type": "address"
                }
            ],
            "stateMutability": "view",
            "type": "function"
        },
        {
            "inputs": [
                {
                    "internalType": "string",
                    "name": "asset",
                    "type": "string"
                },
                {
                    "internalType": "uint8",
                    "name": "metric",
                    "type": "uint8"
                },
                {
                    "internalType": "uint80",
                    "name": "value",
                    "type": "uint80"
                },
                {
                    "internalType": "uint64",
                    "name": "endTime",
                    "type": "uint64"
                },
                {
                    "internalType": "uint80",
                    "name": "usdcToDeposit",
                    "type": "uint80"
                },
                {
                    "internalType": "bool",
                    "name": "speculatingOnYes",
                    "type": "bool"
                }
            ],
            "name": "createMarketEvent",
            "outputs": [
                {
                    "internalType": "uint80",
                    "name": "",
                    "type": "uint80"
                }
            ],
            "stateMutability": "nonpayable",
            "type": "function"
        },
        {
            "inputs": [],
            "name": "getLabel",
            "outputs": [
                {
                    "internalType": "string",
                    "name": "",
                    "type": "string"
                }
            ],
            "stateMutability": "pure",
            "type": "function"
        },
        {
            "inputs": [
                {
                    "internalType": "uint80",
                    "name": "marketEventId",
                    "type": "uint80"
                }
            ],
            "name": "getMarketEventName",
            "outputs": [
                {
                    "internalType": "string",
                    "name": "",
                    "type": "string"
                }
            ],
            "stateMutability": "view",
            "type": "function"
        },
        {
            "inputs": [
                {
                    "internalType": "uint80",
                    "name": "marketEventId",
                    "type": "uint80"
                }
            ],
            "name": "getMarketEventNameVariables",
            "outputs": [
                {
                    "components": [
                        {
                            "internalType": "string",
                            "name": "format",
                            "type": "string"
                        },
                        {
                            "internalType": "string",
                            "name": "text",
                            "type": "string"
                        },
                        {
                            "internalType": "int256",
                            "name": "value",
                            "type": "int256"
                        }
                    ],
                    "internalType": "struct LabelVariable[]",
                    "name": "",
                    "type": "tuple[]"
                }
            ],
            "stateMutability": "view",
            "type": "function"
        },
        {
            "inputs": [],
            "name": "getSupportedAssets",
            "outputs": [
                {
                    "internalType": "string[]",
                    "name": "",
                    "type": "string[]"
                }
            ],
            "stateMutability": "view",
            "type": "function"
        },
        {
            "inputs": [],
            "name": "getSupportedMetrics",
            "outputs": [
                {
                    "components": [
                        {
                            "internalType": "uint8",
                            "name": "metricId",
                            "type": "uint8"
                        },
                        {
                            "internalType": "string",
                            "name": "name",
                            "type": "string"
                        }
                    ],
                    "internalType": "struct FuturesProviderSupportedMetric[]",
                    "name": "",
                    "type": "tuple[]"
                }
            ],
            "stateMutability": "pure",
            "type": "function"
        },
        {
            "inputs": [],
            "name": "owner",
            "outputs": [
                {
                    "internalType": "address",
                    "name": "",
                    "type": "address"
                }
            ],
            "stateMutability": "view",
            "type": "function"
        },
        {
            "inputs": [
                {
                    "internalType": "uint80",
                    "name": "marketEventId",
                    "type": "uint80"
                },
                {
                    "internalType": "uint80",
                    "name": "aggregatorRoundId",
                    "type": "uint80"
                }
            ],
            "name": "resolveMarketEvent",
            "outputs": [],
            "stateMutability": "nonpayable",
            "type": "function"
        },
        {
            "inputs": [
                {
                    "internalType": "uint256",
                    "name": "",
                    "type": "uint256"
                }
            ],
            "name": "supportedAssets",
            "outputs": [
                {
                    "internalType": "string",
                    "name": "",
                    "type": "string"
                }
            ],
            "stateMutability": "view",
            "type": "function"
        },
        {
            "inputs": [
                {
                    "internalType": "address",
                    "name": "to",
                    "type": "address"
                }
            ],
            "name": "transferOwnership",
            "outputs": [],
            "stateMutability": "nonpayable",
            "type": "function"
        }
    ],
    "bytecode": "608060405234801561000f575f80fd5b50604051611b22380380611b2283398101604081905261002e9161018d565b33805f816100835760405162461bcd60e51b815260206004820152601860248201527f43616e6e6f7420736574206f776e657220746f207a65726f000000000000000060448201526064015b60405180910390fd5b5f80546001600160a01b0319166001600160a01b03848116919091179091558116156100b2576100b2816100e5565b5050600580546001600160a01b039093166001600160a01b031993841681179091556006805490931617909155506101ba565b336001600160a01b0382160361013d5760405162461bcd60e51b815260206004820152601760248201527f43616e6e6f74207472616e7366657220746f2073656c66000000000000000000604482015260640161007a565b600180546001600160a01b0319166001600160a01b038381169182179092555f8054604051929316917fed8889f560326eb138920d842192f0eb3dd22b4f139c87a2c57538e05bae12789190a350565b5f6020828403121561019d575f80fd5b81516001600160a01b03811681146101b3575f80fd5b9392505050565b61195b806101c75f395ff3fe608060405234801561000f575f80fd5b50600436106100e5575f3560e01c8063af33a17b11610088578063dbc2d04211610063578063dbc2d0421461022b578063e056de271461023e578063e5406dbf14610251578063f2fde38b14610266575f80fd5b8063af33a17b146101e5578063c68dbb37146101f8578063c6ebd3921461020b575f80fd5b80636f685e75116100c35780636f685e751461017e57806379ba5097146101935780638da5cb5b1461019b5780639554c124146101ab575f80fd5b8063236126b2146100e95780633c0b9ec1146101075780633e18f96014610153575b5f80fd5b6100f1610279565b6040516100fe9190611120565b60405180910390f35b61013b6101153660046111ab565b80516020818301810180516002825292820191909301209152546001600160a01b031681565b6040516001600160a01b0390911681526020016100fe565b6101666101613660046112af565b61034d565b6040516001600160501b0390911681526020016100fe565b61019161018c36600461135f565b61064a565b005b610191610846565b5f546001600160a01b031661013b565b6040805180820190915260158152745072696365206f6e2061206675747572652064617960581b60208201525b6040516100fe9190611396565b6101d86101f33660046113af565b6108ef565b6101d86102063660046113ca565b61097a565b61021e6102193660046113af565b610a20565b6040516100fe91906113e1565b60055461013b906001600160a01b031681565b61019161024c36600461147f565b610b54565b610259610ce7565b6040516100fe91906114cf565b610191610274366004611531565b610dbb565b6060806040518060400160405280600160ff16815260200160405180604001604052806012815260200171283934b1b29034b9903632b9b9903a3430b760711b815250815250815f815181106102d1576102d161154a565b60200260200101819052506040518060400160405280600260ff1681526020016040518060400160405280601e81526020017f5072696365206973206d6f7265207468616e206f7220657175616c20746f00008152508152508160018151811061033d5761033d61154a565b6020908102919091010152919050565b5f60ff861660011480610363575060ff86166002145b6103a15760405162461bcd60e51b815260206004820152600a602482015269426164206d657472696360b01b60448201526064015b60405180910390fd5b600388886040516103b392919061155e565b9081526040519081900360200190205460ff166103fe5760405162461bcd60e51b815260206004820152600960248201526810985908185cdcd95d60ba1b6044820152606401610398565b6001856001600160501b031610156104445760405162461bcd60e51b81526020600482015260096024820152684261642076616c756560b81b6044820152606401610398565b6006546040516379addc3960e01b815233600482015267ffffffffffffffff861660248201526001600160501b038516604482015283151560648201525f916001600160a01b0316906379addc39906084016020604051808303815f875af11580156104b2573d5f803e3d5ffd5b505050506040513d601f19601f820116820180604052508101906104d6919061156d565b6001600160501b0381165f9081526007602052604090205490915060ff161561052c5760405162461bcd60e51b81526020600482015260086024820152674578697374696e6760c01b6044820152606401610398565b6040518060a001604052806001151581526020018a8a8080601f0160208091040260200160405190810160405280939291908181526020018383808284375f92018290525093855250505060ff8a166020808401919091526001600160501b038a811660408086019190915267ffffffffffffffff8b1660609095019490945285168252600781529190208251815460ff19169015151781559082015160018201906105d8908261160c565b50604082015160029091018054606084015160809094015167ffffffffffffffff16600160581b0267ffffffffffffffff60581b196001600160501b03909516610100026affffffffffffffffffffff1990921660ff9094169390931717929092161790559050979650505050505050565b6001600160501b0382165f908152600760205260409020805460ff166106825760405162461bcd60e51b8152600401610398906116cc565b5f60028260010160405161069691906116f7565b908152604051908190036020019020546001600160a01b03169050806106ce5760405162461bcd60e51b8152600401610398906116cc565b600282015481905f906106f390600160581b900467ffffffffffffffff168684610dcf565b60028501549091505f9060ff165f1901610725575060028401546001600160501b038083166101009092041610610789565b600285015460ff1660011901610754575060028401546001600160501b03808316610100909204161015610789565b60405162461bcd60e51b815260206004820152600a602482015269426164206d657472696360b01b6044820152606401610398565b600654604051635881f9df60e01b81526001600160501b038916600482015282151560248201526001600160a01b0390911690635881f9df906044015f604051808303815f87803b1580156107dc575f80fd5b505af11580156107ee573d5f803e3d5ffd5b5050506001600160501b0388165f908152600760205260408120805460ff19168155915061081f60018301826110a8565b50600201805472ffffffffffffffffffffffffffffffffffffff1916905550505050505050565b6001546001600160a01b031633146108995760405162461bcd60e51b815260206004820152601660248201527526bab9ba10313290383937b837b9b2b21037bbb732b960511b6044820152606401610398565b5f8054336001600160a01b0319808316821784556001805490911690556040516001600160a01b0390921692909183917f8be0079c531659141344cd1fd0a4f28419497f9722a3daafe3b4186f6b6457e091a350565b6001600160501b0381165f90815260076020526040902080546060919060ff1661092b5760405162461bcd60e51b8152600401610398906116cc565b600281015460ff165f190161095a576040518060600160405280603381526020016118f3603391399392505050565b6040518060600160405280603181526020016118c2603191399392505050565b60048181548110610989575f80fd5b905f5260205f20015f9150905080546109a190611588565b80601f01602080910402602001604051908101604052809291908181526020018280546109cd90611588565b8015610a185780601f106109ef57610100808354040283529160200191610a18565b820191905f5260205f20905b8154815290600101906020018083116109fb57829003601f168201915b505050505081565b6001600160501b0381165f90815260076020526040902080546060919060ff16610a5c5760405162461bcd60e51b8152600401610398906116cc565b6060604051806060016040528060405180604001604052806006815260200165737472696e6760d01b8152508152602001604051806040016040528060058152602001641054d4d15560da1b81525081526020015f815250815f81518110610ac657610ac661154a565b6020908102919091018101919091526040805160a081018252600460608201908152637573646360e01b6080830152815281518083018352600581526456414c554560d81b8185015292810192909252600284015461010090046001600160501b031690820152815182906001908110610b4257610b4261154a565b60209081029190910101529392505050565b610b5c610fac565b5f6001600160a01b031660028484604051610b7892919061155e565b908152604051908190036020019020546001600160a01b031614610bc75760405162461bcd60e51b815260206004820152600660248201526545786973747360d01b6044820152606401610398565b5f819050806001600160a01b03166354fd4d506040518163ffffffff1660e01b8152600401602060405180830381865afa158015610c07573d5f803e3d5ffd5b505050506040513d601f19601f82011682018060405250810190610c2b9190611769565b50600480546001810182555f919091527f8a35acfbc15ff81a39ae7d344fd709f28e8600b4aa8c65c6b64bfe7fe36bd19b01610c68848683611780565b508160028585604051610c7c92919061155e565b90815260200160405180910390205f6101000a8154816001600160a01b0302191690836001600160a01b03160217905550600160038585604051610cc192919061155e565b908152604051908190036020019020805491151560ff1990921691909117905550505050565b60606004805480602002602001604051908101604052809291908181526020015f905b82821015610db2578382905f5260205f20018054610d2790611588565b80601f0160208091040260200160405190810160405280929190818152602001828054610d5390611588565b8015610d9e5780601f10610d7557610100808354040283529160200191610d9e565b820191905f5260205f20905b815481529060010190602001808311610d8157829003601f168201915b505050505081526020019060010190610d0a565b50505050905090565b610dc3610fac565b610dcc81611000565b50565b604051639a6fc8f560e01b81526001600160501b03831660048201525f90819081906001600160a01b03851690639a6fc8f59060240160a060405180830381865afa158015610e20573d5f803e3d5ffd5b505050506040513d601f19601f82011682018060405250810190610e44919061183a565b509350509250505f846001600160a01b0316639a6fc8f5600188610e68919061188e565b6040516001600160e01b031960e084901b1681526001600160501b03909116600482015260240160a060405180830381865afa158015610eaa573d5f803e3d5ffd5b505050506040513d601f19601f82011682018060405250810190610ece919061183a565b509350505050866001600160501b0316821015610f1d5760405162461bcd60e51b815260206004820152600d60248201526c42616420726f756e642028312960981b6044820152606401610398565b866001600160501b03168110610f655760405162461bcd60e51b815260206004820152600d60248201526c42616420726f756e642028322960981b6044820152606401610398565b5f8312610fa15760405162461bcd60e51b815260206004820152600a6024820152692130b21030b739bbb2b960b11b6044820152606401610398565b509095945050505050565b5f546001600160a01b03163314610ffe5760405162461bcd60e51b815260206004820152601660248201527527b7363c9031b0b63630b1363290313c9037bbb732b960511b6044820152606401610398565b565b336001600160a01b038216036110585760405162461bcd60e51b815260206004820152601760248201527f43616e6e6f74207472616e7366657220746f2073656c660000000000000000006044820152606401610398565b600180546001600160a01b0319166001600160a01b038381169182179092555f8054604051929316917fed8889f560326eb138920d842192f0eb3dd22b4f139c87a2c57538e05bae12789190a350565b5080546110b490611588565b5f825580601f106110c3575050565b601f0160209004905f5260205f2090810190610dcc91905b808211156110ee575f81556001016110db565b5090565b5f81518084528060208401602086015e5f602082860101526020601f19601f83011685010191505092915050565b5f60208083018184528085518083526040925060408601915060408160051b8701018488015f5b8381101561118957888303603f190185528151805160ff168452870151878401879052611176878501826110f2565b9588019593505090860190600101611147565b509098975050505050505050565b634e487b7160e01b5f52604160045260245ffd5b5f602082840312156111bb575f80fd5b813567ffffffffffffffff808211156111d2575f80fd5b818401915084601f8301126111e5575f80fd5b8135818111156111f7576111f7611197565b604051601f8201601f19908116603f0116810190838211818310171561121f5761121f611197565b81604052828152876020848701011115611237575f80fd5b826020860160208301375f928101602001929092525095945050505050565b5f8083601f840112611266575f80fd5b50813567ffffffffffffffff81111561127d575f80fd5b602083019150836020828501011115611294575f80fd5b9250929050565b6001600160501b0381168114610dcc575f80fd5b5f805f805f805f60c0888a0312156112c5575f80fd5b873567ffffffffffffffff808211156112dc575f80fd5b6112e88b838c01611256565b909950975060208a0135915060ff82168214611302575f80fd5b9095506040890135906113148261129b565b909450606089013590808216821461132a575f80fd5b509250608088013561133b8161129b565b915060a0880135801515811461134f575f80fd5b8091505092959891949750929550565b5f8060408385031215611370575f80fd5b823561137b8161129b565b9150602083013561138b8161129b565b809150509250929050565b602081525f6113a860208301846110f2565b9392505050565b5f602082840312156113bf575f80fd5b81356113a88161129b565b5f602082840312156113da575f80fd5b5035919050565b5f60208083018184528085518083526040925060408601915060408160051b8701018488015f5b8381101561118957603f1989840301855281516060815181865261142e828701826110f2565b915050888201518582038a87015261144682826110f2565b92890151958901959095525094870194925090860190600101611408565b80356001600160a01b038116811461147a575f80fd5b919050565b5f805f60408486031215611491575f80fd5b833567ffffffffffffffff8111156114a7575f80fd5b6114b386828701611256565b90945092506114c6905060208501611464565b90509250925092565b5f60208083016020845280855180835260408601915060408160051b8701019250602087015f5b8281101561152457603f198886030184526115128583516110f2565b945092850192908501906001016114f6565b5092979650505050505050565b5f60208284031215611541575f80fd5b6113a882611464565b634e487b7160e01b5f52603260045260245ffd5b818382375f9101908152919050565b5f6020828403121561157d575f80fd5b81516113a88161129b565b600181811c9082168061159c57607f821691505b6020821081036115ba57634e487b7160e01b5f52602260045260245ffd5b50919050565b601f82111561160757805f5260205f20601f840160051c810160208510156115e55750805b601f840160051c820191505b81811015611604575f81556001016115f1565b50505b505050565b815167ffffffffffffffff81111561162657611626611197565b61163a816116348454611588565b846115c0565b602080601f83116001811461166d575f84156116565750858301515b5f19600386901b1c1916600185901b1785556116c4565b5f85815260208120601f198616915b8281101561169b5788860151825594840194600190910190840161167c565b50858210156116b857878501515f19600388901b60f8161c191681555b505060018460011b0185555b505050505050565b602080825260119082015270109859081b585c9ad95d115d995b9d1259607a1b604082015260600190565b5f80835461170481611588565b6001828116801561171c57600181146117315761175d565b60ff198416875282151583028701945061175d565b875f526020805f205f5b858110156117545781548a82015290840190820161173b565b50505082870194505b50929695505050505050565b5f60208284031215611779575f80fd5b5051919050565b67ffffffffffffffff83111561179857611798611197565b6117ac836117a68354611588565b836115c0565b5f601f8411600181146117dd575f85156117c65750838201355b5f19600387901b1c1916600186901b178355611604565b5f83815260208120601f198716915b8281101561180c57868501358255602094850194600190920191016117ec565b5086821015611828575f1960f88860031b161c19848701351681555b505060018560011b0183555050505050565b5f805f805f60a0868803121561184e575f80fd5b85516118598161129b565b8095505060208601519350604086015192506060860151915060808601516118808161129b565b809150509295509295909350565b6001600160501b038281168282160390808211156118ba57634e487b7160e01b5f52601160045260245ffd5b509291505056fe5072696365206f662041535345542077696c6c2062652056414c5545206f72206d6f7265206f6e20454e445f444154452e5072696365206f662041535345542077696c6c206265206c657373207468616e2056414c5545206f6e20454e445f444154452ea264697066735822122007aee8a8fd666a4c02bbd24e40eef6cb10526f26c999e57cfb0616eaaaa401d264736f6c63430008190033",
    "sourcePath": "/Users/mieszkokycermann/Desktop/contract/contracts/PriceFutures.sol",
    "compiler": {
        "name": "solc",
        "version": "0.8.25+commit.b61c2a91"
    },
    "functionHashes": {
        "acceptOwnership()": "79ba5097",
        "addSupportedAsset(string,address)": "e056de27",
        "chainlinkPriceOracles(string)": "3c0b9ec1",
        "consumerAddress()": "dbc2d042",
        "createMarketEvent(string,uint8,uint80,uint64,uint80,bool)": "3e18f960",
        "getLabel()": "9554c124",
        "getMarketEventName(uint80)": "af33a17b",
        "getMarketEventNameVariables(uint80)": "c6ebd392",
        "getSupportedAssets()": "e5406dbf",
        "getSupportedMetrics()": "236126b2",
        "owner()": "8da5cb5b",
        "resolveMarketEvent(uint80,uint80)": "6f685e75",
        "supportedAssets(uint256)": "c68dbb37",
        "transferOwnership(address)": "f2fde38b"
    },
    "gasEstimates": {
        "creation": {
            "codeDepositCost": "1298200",
            "executionCost": "infinite",
            "totalCost": "infinite"
        },
        "external": {
            "acceptOwnership()": "52342",
            "addSupportedAsset(string,address)": "infinite",
            "chainlinkPriceOracles(string)": "infinite",
            "consumerAddress()": "2358",
            "createMarketEvent(string,uint8,uint80,uint64,uint80,bool)": "infinite",
            "getLabel()": "infinite",
            "getMarketEventName(uint80)": "infinite",
            "getMarketEventNameVariables(uint80)": "infinite",
            "getSupportedAssets()": "infinite",
            "getSupportedMetrics()": "infinite",
            "owner()": "2396",
            "resolveMarketEvent(uint80,uint80)": "infinite",
            "supportedAssets(uint256)": "infinite",
            "transferOwnership(address)": "30520"
        },
        "internal": {
            "getRoundPrice(uint80,uint80,contract AggregatorV3Interface)": "infinite"
        }
    }
}