{
    "contractName": "Sorites",
    "abi": [
        {
            "inputs": [],
            "stateMutability": "payable",
            "type": "constructor"
        },
        {
            "inputs": [
                {
                    "internalType": "address",
                    "name": "sender",
                    "type": "address"
                },
                {
                    "internalType": "uint256",
                    "name": "balance",
                    "type": "uint256"
                },
                {
                    "internalType": "uint256",
                    "name": "needed",
                    "type": "uint256"
                },
                {
                    "internalType": "uint256",
                    "name": "tokenId",
                    "type": "uint256"
                }
            ],
            "name": "ERC1155InsufficientBalance",
            "type": "error"
        },
        {
            "inputs": [
                {
                    "internalType": "address",
                    "name": "approver",
                    "type": "address"
                }
            ],
            "name": "ERC1155InvalidApprover",
            "type": "error"
        },
        {
            "inputs": [
                {
                    "internalType": "uint256",
                    "name": "idsLength",
                    "type": "uint256"
                },
                {
                    "internalType": "uint256",
                    "name": "valuesLength",
                    "type": "uint256"
                }
            ],
            "name": "ERC1155InvalidArrayLength",
            "type": "error"
        },
        {
            "inputs": [
                {
                    "internalType": "address",
                    "name": "operator",
                    "type": "address"
                }
            ],
            "name": "ERC1155InvalidOperator",
            "type": "error"
        },
        {
            "inputs": [
                {
                    "internalType": "address",
                    "name": "receiver",
                    "type": "address"
                }
            ],
            "name": "ERC1155InvalidReceiver",
            "type": "error"
        },
        {
            "inputs": [
                {
                    "internalType": "address",
                    "name": "sender",
                    "type": "address"
                }
            ],
            "name": "ERC1155InvalidSender",
            "type": "error"
        },
        {
            "inputs": [
                {
                    "internalType": "address",
                    "name": "operator",
                    "type": "address"
                },
                {
                    "internalType": "address",
                    "name": "owner",
                    "type": "address"
                }
            ],
            "name": "ERC1155MissingApprovalForAll",
            "type": "error"
        },
        {
            "inputs": [
                {
                    "internalType": "address",
                    "name": "owner",
                    "type": "address"
                }
            ],
            "name": "OwnableInvalidOwner",
            "type": "error"
        },
        {
            "inputs": [
                {
                    "internalType": "address",
                    "name": "account",
                    "type": "address"
                }
            ],
            "name": "OwnableUnauthorizedAccount",
            "type": "error"
        },
        {
            "anonymous": false,
            "inputs": [
                {
                    "indexed": true,
                    "internalType": "address",
                    "name": "account",
                    "type": "address"
                },
                {
                    "indexed": true,
                    "internalType": "address",
                    "name": "operator",
                    "type": "address"
                },
                {
                    "indexed": false,
                    "internalType": "bool",
                    "name": "approved",
                    "type": "bool"
                }
            ],
            "name": "ApprovalForAll",
            "type": "event"
        },
        {
            "anonymous": false,
            "inputs": [
                {
                    "indexed": false,
                    "internalType": "address",
                    "name": "who",
                    "type": "address"
                },
                {
                    "indexed": false,
                    "internalType": "uint80",
                    "name": "marketEventId",
                    "type": "uint80"
                },
                {
                    "indexed": false,
                    "internalType": "uint256",
                    "name": "amountInUSDC",
                    "type": "uint256"
                }
            ],
            "name": "CashedOut",
            "type": "event"
        },
        {
            "anonymous": false,
            "inputs": [
                {
                    "indexed": false,
                    "internalType": "address",
                    "name": "who",
                    "type": "address"
                },
                {
                    "indexed": false,
                    "internalType": "uint80",
                    "name": "marketEventId",
                    "type": "uint80"
                },
                {
                    "indexed": false,
                    "internalType": "uint256",
                    "name": "amountInUSDC",
                    "type": "uint256"
                },
                {
                    "indexed": false,
                    "internalType": "bool",
                    "name": "tokenTypeYes",
                    "type": "bool"
                }
            ],
            "name": "MarketEventResolved",
            "type": "event"
        },
        {
            "anonymous": false,
            "inputs": [
                {
                    "indexed": true,
                    "internalType": "address",
                    "name": "previousOwner",
                    "type": "address"
                },
                {
                    "indexed": true,
                    "internalType": "address",
                    "name": "newOwner",
                    "type": "address"
                }
            ],
            "name": "OwnershipTransferred",
            "type": "event"
        },
        {
            "anonymous": false,
            "inputs": [
                {
                    "indexed": true,
                    "internalType": "address",
                    "name": "operator",
                    "type": "address"
                },
                {
                    "indexed": true,
                    "internalType": "address",
                    "name": "from",
                    "type": "address"
                },
                {
                    "indexed": true,
                    "internalType": "address",
                    "name": "to",
                    "type": "address"
                },
                {
                    "indexed": false,
                    "internalType": "uint256[]",
                    "name": "ids",
                    "type": "uint256[]"
                },
                {
                    "indexed": false,
                    "internalType": "uint256[]",
                    "name": "values",
                    "type": "uint256[]"
                }
            ],
            "name": "TransferBatch",
            "type": "event"
        },
        {
            "anonymous": false,
            "inputs": [
                {
                    "indexed": true,
                    "internalType": "address",
                    "name": "operator",
                    "type": "address"
                },
                {
                    "indexed": true,
                    "internalType": "address",
                    "name": "from",
                    "type": "address"
                },
                {
                    "indexed": true,
                    "internalType": "address",
                    "name": "to",
                    "type": "address"
                },
                {
                    "indexed": false,
                    "internalType": "uint256",
                    "name": "id",
                    "type": "uint256"
                },
                {
                    "indexed": false,
                    "internalType": "uint256",
                    "name": "value",
                    "type": "uint256"
                }
            ],
            "name": "TransferSingle",
            "type": "event"
        },
        {
            "anonymous": false,
            "inputs": [
                {
                    "indexed": false,
                    "internalType": "string",
                    "name": "value",
                    "type": "string"
                },
                {
                    "indexed": true,
                    "internalType": "uint256",
                    "name": "id",
                    "type": "uint256"
                }
            ],
            "name": "URI",
            "type": "event"
        },
        {
            "inputs": [
                {
                    "internalType": "address",
                    "name": "futuresAddress",
                    "type": "address"
                }
            ],
            "name": "addFuturesContract",
            "outputs": [],
            "stateMutability": "nonpayable",
            "type": "function"
        },
        {
            "inputs": [
                {
                    "internalType": "address",
                    "name": "account",
                    "type": "address"
                },
                {
                    "internalType": "uint256",
                    "name": "id",
                    "type": "uint256"
                }
            ],
            "name": "balanceOf",
            "outputs": [
                {
                    "internalType": "uint256",
                    "name": "",
                    "type": "uint256"
                }
            ],
            "stateMutability": "view",
            "type": "function"
        },
        {
            "inputs": [
                {
                    "internalType": "address[]",
                    "name": "accounts",
                    "type": "address[]"
                },
                {
                    "internalType": "uint256[]",
                    "name": "ids",
                    "type": "uint256[]"
                }
            ],
            "name": "balanceOfBatch",
            "outputs": [
                {
                    "internalType": "uint256[]",
                    "name": "",
                    "type": "uint256[]"
                }
            ],
            "stateMutability": "view",
            "type": "function"
        },
        {
            "inputs": [
                {
                    "internalType": "uint80",
                    "name": "marketEventId",
                    "type": "uint80"
                }
            ],
            "name": "collectWinnings",
            "outputs": [],
            "stateMutability": "nonpayable",
            "type": "function"
        },
        {
            "inputs": [
                {
                    "internalType": "address",
                    "name": "minter",
                    "type": "address"
                },
                {
                    "internalType": "uint64",
                    "name": "endTime",
                    "type": "uint64"
                },
                {
                    "internalType": "uint80",
                    "name": "usdcToDeposit",
                    "type": "uint80"
                },
                {
                    "internalType": "bool",
                    "name": "tokenTypeYes",
                    "type": "bool"
                }
            ],
            "name": "createMarketEvent",
            "outputs": [
                {
                    "internalType": "uint80",
                    "name": "",
                    "type": "uint80"
                }
            ],
            "stateMutability": "nonpayable",
            "type": "function"
        },
        {
            "inputs": [
                {
                    "internalType": "address",
                    "name": "",
                    "type": "address"
                }
            ],
            "name": "futuresContractAddressWhitelist",
            "outputs": [
                {
                    "internalType": "bool",
                    "name": "",
                    "type": "bool"
                }
            ],
            "stateMutability": "view",
            "type": "function"
        },
        {
            "inputs": [
                {
                    "internalType": "address",
                    "name": "account",
                    "type": "address"
                },
                {
                    "internalType": "address",
                    "name": "operator",
                    "type": "address"
                }
            ],
            "name": "isApprovedForAll",
            "outputs": [
                {
                    "internalType": "bool",
                    "name": "",
                    "type": "bool"
                }
            ],
            "stateMutability": "view",
            "type": "function"
        },
        {
            "inputs": [
                {
                    "internalType": "uint80",
                    "name": "",
                    "type": "uint80"
                }
            ],
            "name": "marketEvents",
            "outputs": [
                {
                    "internalType": "uint64",
                    "name": "startTime",
                    "type": "uint64"
                },
                {
                    "internalType": "uint64",
                    "name": "endTime",
                    "type": "uint64"
                },
                {
                    "internalType": "uint80",
                    "name": "totalUSDC",
                    "type": "uint80"
                },
                {
                    "internalType": "uint80",
                    "name": "totalYesTokens",
                    "type": "uint80"
                },
                {
                    "internalType": "uint80",
                    "name": "totalNoTokens",
                    "type": "uint80"
                },
                {
                    "internalType": "enum MarketEventStatus",
                    "name": "status",
                    "type": "uint8"
                },
                {
                    "internalType": "uint80",
                    "name": "usdcWonPerWinningToken",
                    "type": "uint80"
                },
                {
                    "internalType": "address",
                    "name": "futuresContractAddress",
                    "type": "address"
                }
            ],
            "stateMutability": "view",
            "type": "function"
        },
        {
            "inputs": [
                {
                    "internalType": "uint80",
                    "name": "marketEventId",
                    "type": "uint80"
                },
                {
                    "internalType": "uint80",
                    "name": "usdcToDeposit",
                    "type": "uint80"
                },
                {
                    "internalType": "bool",
                    "name": "tokenTypeYes",
                    "type": "bool"
                }
            ],
            "name": "mintMarketEventTokens",
            "outputs": [],
            "stateMutability": "nonpayable",
            "type": "function"
        },
        {
            "inputs": [],
            "name": "nextMarketEventId",
            "outputs": [
                {
                    "internalType": "uint80",
                    "name": "",
                    "type": "uint80"
                }
            ],
            "stateMutability": "view",
            "type": "function"
        },
        {
            "inputs": [],
            "name": "owner",
            "outputs": [
                {
                    "internalType": "address",
                    "name": "",
                    "type": "address"
                }
            ],
            "stateMutability": "view",
            "type": "function"
        },
        {
            "inputs": [
                {
                    "internalType": "address",
                    "name": "futuresAddress",
                    "type": "address"
                }
            ],
            "name": "removeFuturesContract",
            "outputs": [],
            "stateMutability": "nonpayable",
            "type": "function"
        },
        {
            "inputs": [],
            "name": "renounceOwnership",
            "outputs": [],
            "stateMutability": "nonpayable",
            "type": "function"
        },
        {
            "inputs": [
                {
                    "internalType": "uint80",
                    "name": "marketEventId",
                    "type": "uint80"
                },
                {
                    "internalType": "bool",
                    "name": "outcomeWasMet",
                    "type": "bool"
                }
            ],
            "name": "resolveMarketEvent",
            "outputs": [],
            "stateMutability": "nonpayable",
            "type": "function"
        },
        {
            "inputs": [
                {
                    "internalType": "address",
                    "name": "from",
                    "type": "address"
                },
                {
                    "internalType": "address",
                    "name": "to",
                    "type": "address"
                },
                {
                    "internalType": "uint256[]",
                    "name": "ids",
                    "type": "uint256[]"
                },
                {
                    "internalType": "uint256[]",
                    "name": "values",
                    "type": "uint256[]"
                },
                {
                    "internalType": "bytes",
                    "name": "data",
                    "type": "bytes"
                }
            ],
            "name": "safeBatchTransferFrom",
            "outputs": [],
            "stateMutability": "nonpayable",
            "type": "function"
        },
        {
            "inputs": [
                {
                    "internalType": "address",
                    "name": "from",
                    "type": "address"
                },
                {
                    "internalType": "address",
                    "name": "to",
                    "type": "address"
                },
                {
                    "internalType": "uint256",
                    "name": "id",
                    "type": "uint256"
                },
                {
                    "internalType": "uint256",
                    "name": "value",
                    "type": "uint256"
                },
                {
                    "internalType": "bytes",
                    "name": "data",
                    "type": "bytes"
                }
            ],
            "name": "safeTransferFrom",
            "outputs": [],
            "stateMutability": "nonpayable",
            "type": "function"
        },
        {
            "inputs": [
                {
                    "internalType": "address",
                    "name": "operator",
                    "type": "address"
                },
                {
                    "internalType": "bool",
                    "name": "approved",
                    "type": "bool"
                }
            ],
            "name": "setApprovalForAll",
            "outputs": [],
            "stateMutability": "nonpayable",
            "type": "function"
        },
        {
            "inputs": [
                {
                    "internalType": "string",
                    "name": "newuri",
                    "type": "string"
                }
            ],
            "name": "setURI",
            "outputs": [],
            "stateMutability": "nonpayable",
            "type": "function"
        },
        {
            "inputs": [
                {
                    "internalType": "bytes4",
                    "name": "interfaceId",
                    "type": "bytes4"
                }
            ],
            "name": "supportsInterface",
            "outputs": [
                {
                    "internalType": "bool",
                    "name": "",
                    "type": "bool"
                }
            ],
            "stateMutability": "view",
            "type": "function"
        },
        {
            "inputs": [
                {
                    "internalType": "address",
                    "name": "newOwner",
                    "type": "address"
                }
            ],
            "name": "transferOwnership",
            "outputs": [],
            "stateMutability": "nonpayable",
            "type": "function"
        },
        {
            "inputs": [
                {
                    "internalType": "uint256",
                    "name": "",
                    "type": "uint256"
                }
            ],
            "name": "uri",
            "outputs": [
                {
                    "internalType": "string",
                    "name": "",
                    "type": "string"
                }
            ],
            "stateMutability": "view",
            "type": "function"
        }
    ],
    "bytecode": "60e0604052602f608081815233916128f460a03961001c81610059565b506001600160a01b03811661004a57604051631e4fbdf760e01b81525f600482015260240160405180910390fd5b61005381610069565b50610211565b60026100658282610152565b5050565b600380546001600160a01b038381166001600160a01b0319831681179093556040519116919082907f8be0079c531659141344cd1fd0a4f28419497f9722a3daafe3b4186f6b6457e0905f90a35050565b634e487b7160e01b5f52604160045260245ffd5b600181811c908216806100e257607f821691505b60208210810361010057634e487b7160e01b5f52602260045260245ffd5b50919050565b601f82111561014d57805f5260205f20601f840160051c8101602085101561012b5750805b601f840160051c820191505b8181101561014a575f8155600101610137565b50505b505050565b81516001600160401b0381111561016b5761016b6100ba565b61017f8161017984546100ce565b84610106565b602080601f8311600181146101b2575f841561019b5750858301515b5f19600386901b1c1916600185901b178555610209565b5f85815260208120601f198616915b828110156101e0578886015182559484019460019091019084016101c1565b50858210156101fd57878501515f19600388901b60f8161c191681555b505060018460011b0185555b505050505050565b6126d68061021e5f395ff3fe608060405234801561000f575f80fd5b5060043610610131575f3560e01c806376f25f35116100b4578063c04eb56611610079578063c04eb56614610328578063ce191e751461033b578063e46ef1901461034e578063e985e9c514610370578063f242432a14610383578063f2fde38b14610396575f80fd5b806376f25f35146102c157806379addc39146102d45780638da5cb5b146102e7578063934996d814610302578063a22cb46514610315575f80fd5b80632eb2c2d6116100fa5780632eb2c2d6146102485780634d9fe1851461025b5780634e1273f4146102865780635881f9df146102a6578063715018a6146102b9575f80fd5b8062fdd58e1461013557806301ffc9a71461015b57806302fe53051461017e5780630e89341c146101935780631981063f146101b3575b5f80fd5b610148610143366004611aa7565b6103a9565b6040519081526020015b60405180910390f35b61016e610169366004611ae4565b6103d0565b6040519015158152602001610152565b61019161018c366004611b9e565b61041f565b005b6101a66101a1366004611bea565b610433565b6040516101529190611c2f565b6102346101c1366004611c57565b60056020525f90815260409020805460018201546002909201546001600160401b0380831693600160401b8404909116926001600160501b03600160801b90910481169282821692600160501b810483169260ff600160a01b83041692600160a81b90920416906001600160a01b031688565b604051610152989796959493929190611c84565b610191610256366004611db2565b6104c5565b60065461026e906001600160501b031681565b6040516001600160501b039091168152602001610152565b610299610294366004611e54565b610531565b6040516101529190611f47565b6101916102b4366004611f66565b6105fb565b610191610757565b6101916102cf366004611f9b565b61076a565b61026e6102e2366004611fb4565b610792565b6003546040516001600160a01b039091168152602001610152565b610191610310366004612014565b610a7b565b610191610323366004612058565b610a8c565b610191610336366004611c57565b610a9b565b610191610349366004611f9b565b610c32565b61016e61035c366004611f9b565b60046020525f908152604090205460ff1681565b61016e61037e366004612072565b610c5d565b6101916103913660046120a3565b610c8a565b6101916103a4366004611f9b565b610ce9565b5f818152602081815260408083206001600160a01b03861684529091529020545b92915050565b5f6001600160e01b03198216636cdb3d1360e11b148061040057506001600160e01b031982166303a24d0760e21b145b806103ca57506301ffc9a760e01b6001600160e01b03198316146103ca565b610427610d23565b61043081610d50565b50565b60606002805461044290612102565b80601f016020809104026020016040519081016040528092919081815260200182805461046e90612102565b80156104b95780601f10610490576101008083540402835291602001916104b9565b820191905f5260205f20905b81548152906001019060200180831161049c57829003601f168201915b50505050509050919050565b336001600160a01b03861681148015906104e657506104e48682610c5d565b155b1561051c5760405163711bec9160e11b81526001600160a01b038083166004830152871660248201526044015b60405180910390fd5b6105298686868686610d5c565b505050505050565b606081518351146105625781518351604051635b05999160e01b815260048101929092526024820152604401610513565b5f83516001600160401b0381111561057c5761057c611b06565b6040519080825280602002602001820160405280156105a5578160200160208202803683370190505b5090505f5b84518110156105f3576020808202860101516105ce906020808402870101516103a9565b8282815181106105e0576105e061213a565b60209081029190910101526001016105aa565b509392505050565b5f61060583610dc1565b60028101549091506001600160a01b031633146106535760405162461bcd60e51b815260206004820152600c60248201526b155b985d5d1a1bdc9a5cd95960a21b6044820152606401610513565b5f6001820154600160a01b900460ff16600281111561067457610674611c70565b146106c15760405162461bcd60e51b815260206004820152601b60248201527f4d61726b65744576656e74206e6f7420696e2070726f677265737300000000006044820152606401610513565b805442600160401b9091046001600160401b0316111561071a5760405162461bcd60e51b815260206004820152601460248201527326b0b935b2ba22bb32b73a103737ba1037bb32b960611b6044820152606401610513565b81610726576002610729565b60015b60018201805460ff60a01b1916600160a01b83600281111561074d5761074d611c70565b0217905550505050565b61075f610d23565b6107685f610e3b565b565b610772610d23565b6001600160a01b03165f908152600460205260409020805460ff19169055565b5f630ee6b280836001600160501b031610156107e25760405162461bcd60e51b815260206004820152600f60248201526e4e6f7420656e6f756768205553444360881b6044820152606401610513565b42846001600160401b031610156108305760405162461bcd60e51b815260206004820152601260248201527110d85b9b9bdd08195b99081a5b881c185cdd60721b6044820152606401610513565b335f9081526004602052604090205460ff166108805760405162461bcd60e51b815260206004820152600f60248201526e139bdd081dda1a5d195b1a5cdd1959608a1b6044820152606401610513565b600680546001600160501b0316905f61089883612162565b91906101000a8154816001600160501b0302191690836001600160501b03160217905550604051806101000160405280426001600160401b03168152602001866001600160401b03168152602001856001600160501b0316815260200160016001600160501b0316815260200160016001600160501b031681526020015f600281111561092757610927611c70565b81525f6020808301829052336040938401526001600160501b03858116835260058252918390208451815492860151948601516001600160401b039182166fffffffffffffffffffffffffffffffff1990941693909317600160401b91909516029390931769ffffffffffffffffffff60801b1916600160801b91831691909102178255606083015160018301805460808601519284166001600160a01b031990911617600160501b92909316919091029190911780825560a0840151919060ff60a01b1916600160a01b836002811115610a0457610a04611c70565b021790555060c082015160018201805469ffffffffffffffffffff60a81b1916600160a81b6001600160501b039093169290920291909117905560e090910151600290910180546001600160a01b0319166001600160a01b03909216919091179055610a7286828686610e8c565b95945050505050565b610a8733848484610e8c565b505050565b610a973383836110b2565b5050565b5f610aa582610dc1565b90505f6001820154600160a01b900460ff166002811115610ac857610ac8611c70565b03610b155760405162461bcd60e51b815260206004820152601760248201527f4d61726b65744576656e7420696e2070726f67726573730000000000000000006044820152606401610513565b5f600180830154600160a01b900460ff166002811115610b3757610b37611c70565b14610b5357600183901b6a01fffffffffffffffffffe16610b5c565b610b5c83611146565b90505f610b6933836103a9565b9050805f03610ba85760405162461bcd60e51b815260206004820152600b60248201526a4e6f2077696e6e696e677360a81b6044820152606401610513565b60018301545f90610bca908390600160a81b90046001600160501b0316612187565b9050610bd7338484611161565b610be23033836111c7565b604080513381526001600160501b03871660208201529081018290527f1a660fe47e12a9977e3a47ca075a1e91ffbecec3c23c07917846dffc525b63879060600160405180910390a15050505050565b610c3a610d23565b6001600160a01b03165f908152600460205260409020805460ff19166001179055565b6001600160a01b039182165f90815260016020908152604080832093909416825291909152205460ff1690565b336001600160a01b0386168114801590610cab5750610ca98682610c5d565b155b15610cdc5760405163711bec9160e11b81526001600160a01b03808316600483015287166024820152604401610513565b610529868686868661129f565b610cf1610d23565b6001600160a01b038116610d1a57604051631e4fbdf760e01b81525f6004820152602401610513565b61043081610e3b565b6003546001600160a01b031633146107685760405163118cdaa760e01b8152336004820152602401610513565b6002610a9782826121e2565b6001600160a01b038416610d8557604051632bfa23e760e11b81525f6004820152602401610513565b6001600160a01b038516610dad57604051626a0d4560e21b81525f6004820152602401610513565b610dba858585858561132b565b5050505050565b6006545f906001600160501b0390811690831610610e215760405162461bcd60e51b815260206004820152601a60248201527f4d61726b65744576656e7420646f6573206e6f742065786973740000000000006044820152606401610513565b506001600160501b03165f90815260056020526040902090565b600380546001600160a01b038381166001600160a01b0319831681179093556040519116919082907f8be0079c531659141344cd1fd0a4f28419497f9722a3daafe3b4186f6b6457e0905f90a35050565b5f610e9684610dc1565b805490915042600160401b9091046001600160401b031611610ef05760405162461bcd60e51b815260206004820152601360248201527226b0b935b2ba22bb32b73a1034b99037bb32b960691b6044820152606401610513565b610f048530856001600160501b03166111c7565b5f610f0f828461137e565b90505f610f1c858361229d565b90505f84610f3b57600187901b6a01fffffffffffffffffffe16610f44565b610f4487611146565b604080515f815260208101909152909150610f6d90899083906001600160501b0386169061161a565b835486908590601090610f91908490600160801b90046001600160501b03166122c8565b92506101000a8154816001600160501b0302191690836001600160501b031602179055508415611003576001840180548391905f90610fda9084906001600160501b03166122c8565b92506101000a8154816001600160501b0302191690836001600160501b0316021790555061104e565b8184600101600a8282829054906101000a90046001600160501b031661102991906122c8565b92506101000a8154816001600160501b0302191690836001600160501b031602179055505b604080516001600160a01b038a1681526001600160501b038981166020830152881681830152861515606082015290517f95352b17d36533a234f674b6b8ef69d8ae7042175cb98282c8b51178f20ac2fb9181900360800190a15050505050505050565b6001600160a01b0382166110da5760405162ced3e160e81b81525f6004820152602401610513565b6001600160a01b038381165f81815260016020908152604080832094871680845294825291829020805460ff191686151590811790915591519182527f17307eab39ab6107e8899845ad3d59bd9653f200f220920489ca2b5937696c31910160405180910390a3505050565b5f6001826001600160501b0316901b60016103ca91906122ef565b6001600160a01b03831661118957604051626a0d4560e21b81525f6004820152602401610513565b604080516001808252602082018590528183019081526060820184905260a082019092525f60808201818152919291610dba9187918590859061132b565b6040516323b872dd60e01b81526001600160a01b03808516600483015283166024820152604481018290525f9073833589fcd6edb6e08f4c7c32d4f71b54bda02913906323b872dd906064016020604051808303815f875af115801561122f573d5f803e3d5ffd5b505050506040513d601f19601f820116820180604052508101906112539190612302565b9050806112995760405162461bcd60e51b81526020600482015260146024820152731554d110c81d1c985b9cd9995c8819985a5b195960621b6044820152606401610513565b50505050565b6001600160a01b0384166112c857604051632bfa23e760e11b81525f6004820152602401610513565b6001600160a01b0385166112f057604051626a0d4560e21b81525f6004820152602401610513565b60408051600180825260208201869052818301908152606082018590526080820190925290611322878784848761132b565b50505050505050565b61133785858585611675565b6001600160a01b03841615610dba57825133906001036113705760208481015190840151611369838989858589611884565b5050610529565b6105298187878787876119a5565b81545f9081906113a1906001600160401b0380821691600160401b90041661231d565b84549091505f906113bb906001600160401b03164261231d565b90505f6113c88383612351565b9050677fffffffffffffff600184901c166001600160401b038316115f81611410576113f5600484612552565b611400906008612569565b61140b90600161231d565b611432565b600461141d84600161231d565b6114279190612552565b611432906008612569565b6001600160401b031690505f8761145d576001890154600160501b90046001600160501b031661146c565b60018901546001600160501b03165b6001600160501b031690505f886114905760018a01546001600160501b03166114a6565b60018a0154600160501b90046001600160501b03165b6001600160501b03169050818111156114f15760405162461bcd60e51b815260206004820152600d60248201526c496e76616c696420737461746560981b6044820152606401610513565b5f8183111561150957611504838361258c565b611513565b611513828461258c565b90505f600261152383600161259f565b61152d91906125b2565b61153883600161259f565b61154291906122ef565b61154d906002612187565b90505f61155b600289612552565b6001600160401b031661156e84846122ef565b6115789190612187565b61158b6001600160401b038a1684612187565b61159590856122ef565b61159f919061259f565b90505f848611156115c457836115b58389612187565b6115bf919061258c565b6115d9565b816115cf8589612187565b6115d9919061258c565b90508486116116065760018110156115f25760016115f4565b805b9b5050505050505050505050506103ca565b60019b5050505050505050505050506103ca565b6001600160a01b03841661164357604051632bfa23e760e11b81525f6004820152602401610513565b604080516001808252602082018690528183019081526060820185905260808201909252906105295f8784848761132b565b80518251146116a45781518151604051635b05999160e01b815260048101929092526024820152604401610513565b335f5b83518110156117a6576020818102858101820151908501909101516001600160a01b03881615611758575f828152602081815260408083206001600160a01b038c16845290915290205481811015611732576040516303dee4c560e01b81526001600160a01b038a166004820152602481018290526044810183905260648101849052608401610513565b5f838152602081815260408083206001600160a01b038d16845290915290209082900390555b6001600160a01b0387161561179c575f828152602081815260408083206001600160a01b038b168452909152812080548392906117969084906122ef565b90915550505b50506001016116a7565b5082516001036118265760208301515f906020840151909150856001600160a01b0316876001600160a01b0316846001600160a01b03167fc3d58168c5ae7397731d063d5bbf3d657854427343f4c083240f7aacaa2d0f628585604051611817929190918252602082015260400190565b60405180910390a45050610dba565b836001600160a01b0316856001600160a01b0316826001600160a01b03167f4a39dc06d4c0dbc64b70af90fd698a233a518aa5d07e595d983b8c0526c8f7fb86866040516118759291906125c0565b60405180910390a45050505050565b6001600160a01b0384163b156105295760405163f23a6e6160e01b81526001600160a01b0385169063f23a6e61906118c890899089908890889088906004016125e4565b6020604051808303815f875af1925050508015611902575060408051601f3d908101601f191682019092526118ff91810190612628565b60015b611969573d80801561192f576040519150601f19603f3d011682016040523d82523d5f602084013e611934565b606091505b5080515f0361196157604051632bfa23e760e11b81526001600160a01b0386166004820152602401610513565b805181602001fd5b6001600160e01b0319811663f23a6e6160e01b1461132257604051632bfa23e760e11b81526001600160a01b0386166004820152602401610513565b6001600160a01b0384163b156105295760405163bc197c8160e01b81526001600160a01b0385169063bc197c81906119e99089908990889088908890600401612643565b6020604051808303815f875af1925050508015611a23575060408051601f3d908101601f19168201909252611a2091810190612628565b60015b611a50573d80801561192f576040519150601f19603f3d011682016040523d82523d5f602084013e611934565b6001600160e01b0319811663bc197c8160e01b1461132257604051632bfa23e760e11b81526001600160a01b0386166004820152602401610513565b80356001600160a01b0381168114611aa2575f80fd5b919050565b5f8060408385031215611ab8575f80fd5b611ac183611a8c565b946020939093013593505050565b6001600160e01b031981168114610430575f80fd5b5f60208284031215611af4575f80fd5b8135611aff81611acf565b9392505050565b634e487b7160e01b5f52604160045260245ffd5b604051601f8201601f191681016001600160401b0381118282101715611b4257611b42611b06565b604052919050565b5f6001600160401b03831115611b6257611b62611b06565b611b75601f8401601f1916602001611b1a565b9050828152838383011115611b88575f80fd5b828260208301375f602084830101529392505050565b5f60208284031215611bae575f80fd5b81356001600160401b03811115611bc3575f80fd5b8201601f81018413611bd3575f80fd5b611be284823560208401611b4a565b949350505050565b5f60208284031215611bfa575f80fd5b5035919050565b5f81518084528060208401602086015e5f602082860101526020601f19601f83011685010191505092915050565b602081525f611aff6020830184611c01565b80356001600160501b0381168114611aa2575f80fd5b5f60208284031215611c67575f80fd5b611aff82611c41565b634e487b7160e01b5f52602160045260245ffd5b6001600160401b038981168252881660208201526001600160501b0387811660408301528681166060830152858116608083015261010082019060038610611cda57634e487b7160e01b5f52602160045260245ffd5b60a08301959095529290931660c08401526001600160a01b031660e09092019190915295945050505050565b5f6001600160401b03821115611d1e57611d1e611b06565b5060051b60200190565b5f82601f830112611d37575f80fd5b81356020611d4c611d4783611d06565b611b1a565b8083825260208201915060208460051b870101935086841115611d6d575f80fd5b602086015b84811015611d895780358352918301918301611d72565b509695505050505050565b5f82601f830112611da3575f80fd5b611aff83833560208501611b4a565b5f805f805f60a08688031215611dc6575f80fd5b611dcf86611a8c565b9450611ddd60208701611a8c565b935060408601356001600160401b0380821115611df8575f80fd5b611e0489838a01611d28565b94506060880135915080821115611e19575f80fd5b611e2589838a01611d28565b93506080880135915080821115611e3a575f80fd5b50611e4788828901611d94565b9150509295509295909350565b5f8060408385031215611e65575f80fd5b82356001600160401b0380821115611e7b575f80fd5b818501915085601f830112611e8e575f80fd5b81356020611e9e611d4783611d06565b82815260059290921b84018101918181019089841115611ebc575f80fd5b948201945b83861015611ee157611ed286611a8c565b82529482019490820190611ec1565b96505086013592505080821115611ef6575f80fd5b50611f0385828601611d28565b9150509250929050565b5f815180845260208085019450602084015f5b83811015611f3c57815187529582019590820190600101611f20565b509495945050505050565b602081525f611aff6020830184611f0d565b8015158114610430575f80fd5b5f8060408385031215611f77575f80fd5b611f8083611c41565b91506020830135611f9081611f59565b809150509250929050565b5f60208284031215611fab575f80fd5b611aff82611a8c565b5f805f8060808587031215611fc7575f80fd5b611fd085611a8c565b935060208501356001600160401b0381168114611feb575f80fd5b9250611ff960408601611c41565b9150606085013561200981611f59565b939692955090935050565b5f805f60608486031215612026575f80fd5b61202f84611c41565b925061203d60208501611c41565b9150604084013561204d81611f59565b809150509250925092565b5f8060408385031215612069575f80fd5b611f8083611a8c565b5f8060408385031215612083575f80fd5b61208c83611a8c565b915061209a60208401611a8c565b90509250929050565b5f805f805f60a086880312156120b7575f80fd5b6120c086611a8c565b94506120ce60208701611a8c565b9350604086013592506060860135915060808601356001600160401b038111156120f6575f80fd5b611e4788828901611d94565b600181811c9082168061211657607f821691505b60208210810361213457634e487b7160e01b5f52602260045260245ffd5b50919050565b634e487b7160e01b5f52603260045260245ffd5b634e487b7160e01b5f52601160045260245ffd5b5f6001600160501b0380831681810361217d5761217d61214e565b6001019392505050565b80820281158282048414176103ca576103ca61214e565b601f821115610a8757805f5260205f20601f840160051c810160208510156121c35750805b601f840160051c820191505b81811015610dba575f81556001016121cf565b81516001600160401b038111156121fb576121fb611b06565b61220f816122098454612102565b8461219e565b602080601f831160018114612242575f841561222b5750858301515b5f19600386901b1c1916600185901b178555610529565b5f85815260208120601f198616915b8281101561227057888601518255948401946001909101908401612251565b508582101561228d57878501515f19600388901b60f8161c191681555b5050505050600190811b01905550565b6001600160501b038181168382160280821691908281146122c0576122c061214e565b505092915050565b6001600160501b038181168382160190808211156122e8576122e861214e565b5092915050565b808201808211156103ca576103ca61214e565b5f60208284031215612312575f80fd5b8151611aff81611f59565b6001600160401b038281168282160390808211156122e8576122e861214e565b634e487b7160e01b5f52601260045260245ffd5b5f6001600160401b038084168061236a5761236a61233d565b92169190910492915050565b600181815b808511156123b657816001600160401b030482111561239c5761239c61214e565b808516156123a957918102915b93841c939080029061237b565b509250929050565b600181815b808511156123b657815f19048211156123de576123de61214e565b808516156123eb57918102915b93841c93908002906123c3565b5f82612406575060016103ca565b8161241257505f6103ca565b8160018114612428576002811461243257612466565b60019150506103ca565b60ff8411156124435761244361214e565b6001841b91506001600160401b038211156124605761246061214e565b506103ca565b5060208310610133831016604e8410600b84101617156124a0575081810a6001600160401b0381111561249b5761249b61214e565b6103ca565b6124aa8383612376565b806001600160401b03048211156124c3576124c361214e565b029392505050565b5f826124d9575060016103ca565b816124e557505f6103ca565b816001811461242857600281036125125760ff8411156125075761250761214e565b50506001821b6103ca565b5060208310610133831016604e8410600b8410161715612535575081810a6103ca565b61253f83836123be565b805f19048211156124c3576124c361214e565b5f611aff60ff84166001600160401b0384166123f8565b6001600160401b038181168382160280821691908281146122c0576122c061214e565b5f8261259a5761259a61233d565b500490565b818103818111156103ca576103ca61214e565b5f611aff60ff8416836124cb565b604081525f6125d26040830185611f0d565b8281036020840152610a728185611f0d565b6001600160a01b03868116825285166020820152604081018490526060810183905260a0608082018190525f9061261d90830184611c01565b979650505050505050565b5f60208284031215612638575f80fd5b8151611aff81611acf565b6001600160a01b0386811682528516602082015260a0604082018190525f9061266e90830186611f0d565b82810360608401526126808186611f0d565b905082810360808401526126948185611c01565b9897505050505050505056fea2646970667358221220564f54bd4a309e18e351587884c60c0a53831e38dd3e6d48263225693b4e0e6c64736f6c6343000819003368747470733a2f2f6170702e736f72697465732e78797a2f6170692f76312f746f6b656e732f7b69647d2e6a736f6e",
    "sourcePath": "/Users/mieszkokycermann/Desktop/contract/contracts/Sorites.sol",
    "compiler": {
        "name": "solc",
        "version": "0.8.25+commit.b61c2a91"
    },
    "functionHashes": {
        "addFuturesContract(address)": "ce191e75",
        "balanceOf(address,uint256)": "00fdd58e",
        "balanceOfBatch(address[],uint256[])": "4e1273f4",
        "collectWinnings(uint80)": "c04eb566",
        "createMarketEvent(address,uint64,uint80,bool)": "79addc39",
        "futuresContractAddressWhitelist(address)": "e46ef190",
        "isApprovedForAll(address,address)": "e985e9c5",
        "marketEvents(uint80)": "1981063f",
        "mintMarketEventTokens(uint80,uint80,bool)": "934996d8",
        "nextMarketEventId()": "4d9fe185",
        "owner()": "8da5cb5b",
        "removeFuturesContract(address)": "76f25f35",
        "renounceOwnership()": "715018a6",
        "resolveMarketEvent(uint80,bool)": "5881f9df",
        "safeBatchTransferFrom(address,address,uint256[],uint256[],bytes)": "2eb2c2d6",
        "safeTransferFrom(address,address,uint256,uint256,bytes)": "f242432a",
        "setApprovalForAll(address,bool)": "a22cb465",
        "setURI(string)": "02fe5305",
        "supportsInterface(bytes4)": "01ffc9a7",
        "transferOwnership(address)": "f2fde38b",
        "uri(uint256)": "0e89341c"
    },
    "gasEstimates": {
        "creation": {
            "codeDepositCost": "1988400",
            "executionCost": "infinite",
            "totalCost": "infinite"
        },
        "external": {
            "addFuturesContract(address)": "26815",
            "balanceOf(address,uint256)": "2657",
            "balanceOfBatch(address[],uint256[])": "infinite",
            "collectWinnings(uint80)": "infinite",
            "createMarketEvent(address,uint64,uint80,bool)": "infinite",
            "futuresContractAddressWhitelist(address)": "2594",
            "isApprovedForAll(address,address)": "infinite",
            "marketEvents(uint80)": "7369",
            "mintMarketEventTokens(uint80,uint80,bool)": "infinite",
            "nextMarketEventId()": "2381",
            "owner()": "2367",
            "removeFuturesContract(address)": "26788",
            "renounceOwnership()": "infinite",
            "resolveMarketEvent(uint80,bool)": "33565",
            "safeBatchTransferFrom(address,address,uint256[],uint256[],bytes)": "infinite",
            "safeTransferFrom(address,address,uint256,uint256,bytes)": "infinite",
            "setApprovalForAll(address,bool)": "26796",
            "setURI(string)": "infinite",
            "supportsInterface(bytes4)": "575",
            "transferOwnership(address)": "28465",
            "uri(uint256)": "infinite"
        },
        "internal": {
            "_mintMarketEventTokens(address,uint80,uint80,bool)": "infinite",
            "calculateMintAmountPerUSDC(struct MarketEvent storage pointer,bool)": "infinite",
            "getMarketEvent(uint80)": "infinite",
            "getNoTokenId(uint80)": "infinite",
            "getYesTokenId(uint80)": "infinite",
            "moveUSDC(address,address,uint256)": "infinite"
        }
    }
}