{
    "contractName": "Sorites",
    "abi": [
        {
            "inputs": [],
            "stateMutability": "payable",
            "type": "constructor"
        },
        {
            "inputs": [
                {
                    "internalType": "address",
                    "name": "sender",
                    "type": "address"
                },
                {
                    "internalType": "uint256",
                    "name": "balance",
                    "type": "uint256"
                },
                {
                    "internalType": "uint256",
                    "name": "needed",
                    "type": "uint256"
                },
                {
                    "internalType": "uint256",
                    "name": "tokenId",
                    "type": "uint256"
                }
            ],
            "name": "ERC1155InsufficientBalance",
            "type": "error"
        },
        {
            "inputs": [
                {
                    "internalType": "address",
                    "name": "approver",
                    "type": "address"
                }
            ],
            "name": "ERC1155InvalidApprover",
            "type": "error"
        },
        {
            "inputs": [
                {
                    "internalType": "uint256",
                    "name": "idsLength",
                    "type": "uint256"
                },
                {
                    "internalType": "uint256",
                    "name": "valuesLength",
                    "type": "uint256"
                }
            ],
            "name": "ERC1155InvalidArrayLength",
            "type": "error"
        },
        {
            "inputs": [
                {
                    "internalType": "address",
                    "name": "operator",
                    "type": "address"
                }
            ],
            "name": "ERC1155InvalidOperator",
            "type": "error"
        },
        {
            "inputs": [
                {
                    "internalType": "address",
                    "name": "receiver",
                    "type": "address"
                }
            ],
            "name": "ERC1155InvalidReceiver",
            "type": "error"
        },
        {
            "inputs": [
                {
                    "internalType": "address",
                    "name": "sender",
                    "type": "address"
                }
            ],
            "name": "ERC1155InvalidSender",
            "type": "error"
        },
        {
            "inputs": [
                {
                    "internalType": "address",
                    "name": "operator",
                    "type": "address"
                },
                {
                    "internalType": "address",
                    "name": "owner",
                    "type": "address"
                }
            ],
            "name": "ERC1155MissingApprovalForAll",
            "type": "error"
        },
        {
            "inputs": [
                {
                    "internalType": "address",
                    "name": "owner",
                    "type": "address"
                }
            ],
            "name": "OwnableInvalidOwner",
            "type": "error"
        },
        {
            "inputs": [
                {
                    "internalType": "address",
                    "name": "account",
                    "type": "address"
                }
            ],
            "name": "OwnableUnauthorizedAccount",
            "type": "error"
        },
        {
            "anonymous": false,
            "inputs": [
                {
                    "indexed": true,
                    "internalType": "address",
                    "name": "account",
                    "type": "address"
                },
                {
                    "indexed": true,
                    "internalType": "address",
                    "name": "operator",
                    "type": "address"
                },
                {
                    "indexed": false,
                    "internalType": "bool",
                    "name": "approved",
                    "type": "bool"
                }
            ],
            "name": "ApprovalForAll",
            "type": "event"
        },
        {
            "anonymous": false,
            "inputs": [
                {
                    "indexed": false,
                    "internalType": "address",
                    "name": "who",
                    "type": "address"
                },
                {
                    "indexed": false,
                    "internalType": "uint80",
                    "name": "marketEventId",
                    "type": "uint80"
                },
                {
                    "indexed": false,
                    "internalType": "uint256",
                    "name": "amountInUSDC",
                    "type": "uint256"
                }
            ],
            "name": "CashedOut",
            "type": "event"
        },
        {
            "anonymous": false,
            "inputs": [
                {
                    "indexed": false,
                    "internalType": "address",
                    "name": "who",
                    "type": "address"
                },
                {
                    "indexed": false,
                    "internalType": "uint80",
                    "name": "marketEventId",
                    "type": "uint80"
                },
                {
                    "indexed": false,
                    "internalType": "uint256",
                    "name": "amountInUSDC",
                    "type": "uint256"
                },
                {
                    "indexed": false,
                    "internalType": "bool",
                    "name": "tokenTypeYes",
                    "type": "bool"
                }
            ],
            "name": "MarketEventResolved",
            "type": "event"
        },
        {
            "anonymous": false,
            "inputs": [
                {
                    "indexed": true,
                    "internalType": "address",
                    "name": "previousOwner",
                    "type": "address"
                },
                {
                    "indexed": true,
                    "internalType": "address",
                    "name": "newOwner",
                    "type": "address"
                }
            ],
            "name": "OwnershipTransferred",
            "type": "event"
        },
        {
            "anonymous": false,
            "inputs": [
                {
                    "indexed": true,
                    "internalType": "address",
                    "name": "operator",
                    "type": "address"
                },
                {
                    "indexed": true,
                    "internalType": "address",
                    "name": "from",
                    "type": "address"
                },
                {
                    "indexed": true,
                    "internalType": "address",
                    "name": "to",
                    "type": "address"
                },
                {
                    "indexed": false,
                    "internalType": "uint256[]",
                    "name": "ids",
                    "type": "uint256[]"
                },
                {
                    "indexed": false,
                    "internalType": "uint256[]",
                    "name": "values",
                    "type": "uint256[]"
                }
            ],
            "name": "TransferBatch",
            "type": "event"
        },
        {
            "anonymous": false,
            "inputs": [
                {
                    "indexed": true,
                    "internalType": "address",
                    "name": "operator",
                    "type": "address"
                },
                {
                    "indexed": true,
                    "internalType": "address",
                    "name": "from",
                    "type": "address"
                },
                {
                    "indexed": true,
                    "internalType": "address",
                    "name": "to",
                    "type": "address"
                },
                {
                    "indexed": false,
                    "internalType": "uint256",
                    "name": "id",
                    "type": "uint256"
                },
                {
                    "indexed": false,
                    "internalType": "uint256",
                    "name": "value",
                    "type": "uint256"
                }
            ],
            "name": "TransferSingle",
            "type": "event"
        },
        {
            "anonymous": false,
            "inputs": [
                {
                    "indexed": false,
                    "internalType": "string",
                    "name": "value",
                    "type": "string"
                },
                {
                    "indexed": true,
                    "internalType": "uint256",
                    "name": "id",
                    "type": "uint256"
                }
            ],
            "name": "URI",
            "type": "event"
        },
        {
            "inputs": [
                {
                    "internalType": "address",
                    "name": "futuresAddress",
                    "type": "address"
                }
            ],
            "name": "addFuturesContract",
            "outputs": [],
            "stateMutability": "nonpayable",
            "type": "function"
        },
        {
            "inputs": [
                {
                    "internalType": "address",
                    "name": "account",
                    "type": "address"
                },
                {
                    "internalType": "uint256",
                    "name": "id",
                    "type": "uint256"
                }
            ],
            "name": "balanceOf",
            "outputs": [
                {
                    "internalType": "uint256",
                    "name": "",
                    "type": "uint256"
                }
            ],
            "stateMutability": "view",
            "type": "function"
        },
        {
            "inputs": [
                {
                    "internalType": "address[]",
                    "name": "accounts",
                    "type": "address[]"
                },
                {
                    "internalType": "uint256[]",
                    "name": "ids",
                    "type": "uint256[]"
                }
            ],
            "name": "balanceOfBatch",
            "outputs": [
                {
                    "internalType": "uint256[]",
                    "name": "",
                    "type": "uint256[]"
                }
            ],
            "stateMutability": "view",
            "type": "function"
        },
        {
            "inputs": [
                {
                    "internalType": "uint80",
                    "name": "marketEventId",
                    "type": "uint80"
                }
            ],
            "name": "collectWinnings",
            "outputs": [],
            "stateMutability": "nonpayable",
            "type": "function"
        },
        {
            "inputs": [
                {
                    "internalType": "address",
                    "name": "minter",
                    "type": "address"
                },
                {
                    "internalType": "uint64",
                    "name": "endTime",
                    "type": "uint64"
                },
                {
                    "internalType": "uint80",
                    "name": "usdcToDeposit",
                    "type": "uint80"
                },
                {
                    "internalType": "bool",
                    "name": "tokenTypeYes",
                    "type": "bool"
                }
            ],
            "name": "createMarketEvent",
            "outputs": [
                {
                    "internalType": "uint80",
                    "name": "",
                    "type": "uint80"
                }
            ],
            "stateMutability": "nonpayable",
            "type": "function"
        },
        {
            "inputs": [
                {
                    "internalType": "uint256",
                    "name": "",
                    "type": "uint256"
                }
            ],
            "name": "futuresContractWhitelistAddresses",
            "outputs": [
                {
                    "internalType": "address",
                    "name": "",
                    "type": "address"
                }
            ],
            "stateMutability": "view",
            "type": "function"
        },
        {
            "inputs": [
                {
                    "internalType": "address",
                    "name": "account",
                    "type": "address"
                },
                {
                    "internalType": "address",
                    "name": "operator",
                    "type": "address"
                }
            ],
            "name": "isApprovedForAll",
            "outputs": [
                {
                    "internalType": "bool",
                    "name": "",
                    "type": "bool"
                }
            ],
            "stateMutability": "view",
            "type": "function"
        },
        {
            "inputs": [
                {
                    "internalType": "uint80",
                    "name": "",
                    "type": "uint80"
                }
            ],
            "name": "marketEvents",
            "outputs": [
                {
                    "internalType": "uint64",
                    "name": "startTime",
                    "type": "uint64"
                },
                {
                    "internalType": "uint64",
                    "name": "endTime",
                    "type": "uint64"
                },
                {
                    "internalType": "uint80",
                    "name": "totalUSDC",
                    "type": "uint80"
                },
                {
                    "internalType": "uint80",
                    "name": "totalYesTokens",
                    "type": "uint80"
                },
                {
                    "internalType": "uint80",
                    "name": "totalNoTokens",
                    "type": "uint80"
                },
                {
                    "internalType": "enum MarketEventStatus",
                    "name": "status",
                    "type": "uint8"
                },
                {
                    "internalType": "uint80",
                    "name": "usdcWonPerWinningToken",
                    "type": "uint80"
                },
                {
                    "internalType": "address",
                    "name": "futuresContractAddress",
                    "type": "address"
                }
            ],
            "stateMutability": "view",
            "type": "function"
        },
        {
            "inputs": [
                {
                    "internalType": "uint80",
                    "name": "marketEventId",
                    "type": "uint80"
                },
                {
                    "internalType": "uint80",
                    "name": "usdcToDeposit",
                    "type": "uint80"
                },
                {
                    "internalType": "bool",
                    "name": "tokenTypeYes",
                    "type": "bool"
                }
            ],
            "name": "mintMarketEventTokens",
            "outputs": [],
            "stateMutability": "nonpayable",
            "type": "function"
        },
        {
            "inputs": [],
            "name": "nextMarketEventId",
            "outputs": [
                {
                    "internalType": "uint80",
                    "name": "",
                    "type": "uint80"
                }
            ],
            "stateMutability": "view",
            "type": "function"
        },
        {
            "inputs": [],
            "name": "owner",
            "outputs": [
                {
                    "internalType": "address",
                    "name": "",
                    "type": "address"
                }
            ],
            "stateMutability": "view",
            "type": "function"
        },
        {
            "inputs": [
                {
                    "internalType": "address",
                    "name": "futuresAddress",
                    "type": "address"
                }
            ],
            "name": "removeFuturesContract",
            "outputs": [],
            "stateMutability": "nonpayable",
            "type": "function"
        },
        {
            "inputs": [],
            "name": "renounceOwnership",
            "outputs": [],
            "stateMutability": "nonpayable",
            "type": "function"
        },
        {
            "inputs": [
                {
                    "internalType": "uint80",
                    "name": "marketEventId",
                    "type": "uint80"
                },
                {
                    "internalType": "bool",
                    "name": "outcomeWasMet",
                    "type": "bool"
                }
            ],
            "name": "resolveMarketEvent",
            "outputs": [],
            "stateMutability": "nonpayable",
            "type": "function"
        },
        {
            "inputs": [
                {
                    "internalType": "address",
                    "name": "from",
                    "type": "address"
                },
                {
                    "internalType": "address",
                    "name": "to",
                    "type": "address"
                },
                {
                    "internalType": "uint256[]",
                    "name": "ids",
                    "type": "uint256[]"
                },
                {
                    "internalType": "uint256[]",
                    "name": "values",
                    "type": "uint256[]"
                },
                {
                    "internalType": "bytes",
                    "name": "data",
                    "type": "bytes"
                }
            ],
            "name": "safeBatchTransferFrom",
            "outputs": [],
            "stateMutability": "nonpayable",
            "type": "function"
        },
        {
            "inputs": [
                {
                    "internalType": "address",
                    "name": "from",
                    "type": "address"
                },
                {
                    "internalType": "address",
                    "name": "to",
                    "type": "address"
                },
                {
                    "internalType": "uint256",
                    "name": "id",
                    "type": "uint256"
                },
                {
                    "internalType": "uint256",
                    "name": "value",
                    "type": "uint256"
                },
                {
                    "internalType": "bytes",
                    "name": "data",
                    "type": "bytes"
                }
            ],
            "name": "safeTransferFrom",
            "outputs": [],
            "stateMutability": "nonpayable",
            "type": "function"
        },
        {
            "inputs": [
                {
                    "internalType": "address",
                    "name": "operator",
                    "type": "address"
                },
                {
                    "internalType": "bool",
                    "name": "approved",
                    "type": "bool"
                }
            ],
            "name": "setApprovalForAll",
            "outputs": [],
            "stateMutability": "nonpayable",
            "type": "function"
        },
        {
            "inputs": [
                {
                    "internalType": "string",
                    "name": "newuri",
                    "type": "string"
                }
            ],
            "name": "setURI",
            "outputs": [],
            "stateMutability": "nonpayable",
            "type": "function"
        },
        {
            "inputs": [
                {
                    "internalType": "bytes4",
                    "name": "interfaceId",
                    "type": "bytes4"
                }
            ],
            "name": "supportsInterface",
            "outputs": [
                {
                    "internalType": "bool",
                    "name": "",
                    "type": "bool"
                }
            ],
            "stateMutability": "view",
            "type": "function"
        },
        {
            "inputs": [
                {
                    "internalType": "address",
                    "name": "newOwner",
                    "type": "address"
                }
            ],
            "name": "transferOwnership",
            "outputs": [],
            "stateMutability": "nonpayable",
            "type": "function"
        },
        {
            "inputs": [
                {
                    "internalType": "uint256",
                    "name": "",
                    "type": "uint256"
                }
            ],
            "name": "uri",
            "outputs": [
                {
                    "internalType": "string",
                    "name": "",
                    "type": "string"
                }
            ],
            "stateMutability": "view",
            "type": "function"
        }
    ],
    "bytecode": "60e0604052602f60808181523391612b1060a03961001c81610059565b506001600160a01b03811661004a57604051631e4fbdf760e01b81525f600482015260240160405180910390fd5b61005381610069565b50610211565b60026100658282610152565b5050565b600380546001600160a01b038381166001600160a01b0319831681179093556040519116919082907f8be0079c531659141344cd1fd0a4f28419497f9722a3daafe3b4186f6b6457e0905f90a35050565b634e487b7160e01b5f52604160045260245ffd5b600181811c908216806100e257607f821691505b60208210810361010057634e487b7160e01b5f52602260045260245ffd5b50919050565b601f82111561014d57805f5260205f20601f840160051c8101602085101561012b5750805b601f840160051c820191505b8181101561014a575f8155600101610137565b50505b505050565b81516001600160401b0381111561016b5761016b6100ba565b61017f8161017984546100ce565b84610106565b602080601f8311600181146101b2575f841561019b5750858301515b5f19600386901b1c1916600185901b178555610209565b5f85815260208120601f198616915b828110156101e0578886015182559484019460019091019084016101c1565b50858210156101fd57878501515f19600388901b60f8161c191681555b505060018460011b0185555b505050505050565b6128f28061021e5f395ff3fe608060405234801561000f575f80fd5b5060043610610131575f3560e01c8063715018a6116100b4578063a22cb46511610079578063a22cb46514610336578063c04eb56614610349578063ce191e751461035c578063e985e9c51461036f578063f242432a14610382578063f2fde38b14610395575f80fd5b8063715018a6146102e457806376f25f35146102ec57806379addc39146102ff5780638da5cb5b14610312578063934996d814610323575f80fd5b80632eb2c2d6116100fa5780632eb2c2d614610248578063335b55701461025b5780634d9fe185146102865780634e1273f4146102b15780635881f9df146102d1575f80fd5b8062fdd58e1461013557806301ffc9a71461015b57806302fe53051461017e5780630e89341c146101935780631981063f146101b3575b5f80fd5b610148610143366004611caf565b6103a8565b6040519081526020015b60405180910390f35b61016e610169366004611cec565b6103cf565b6040519015158152602001610152565b61019161018c366004611da6565b61041e565b005b6101a66101a1366004611df2565b610432565b6040516101529190611e37565b6102346101c1366004611e5f565b60066020525f90815260409020805460018201546002909201546001600160401b0380831693600160401b8404909116926001600160501b03600160801b90910481169282821692600160501b810483169260ff600160a01b83041692600160a81b90920416906001600160a01b031688565b604051610152989796959493929190611e8c565b610191610256366004611fba565b6104c4565b61026e610269366004611df2565b610530565b6040516001600160a01b039091168152602001610152565b600754610299906001600160501b031681565b6040516001600160501b039091168152602001610152565b6102c46102bf36600461205c565b610558565b604051610152919061214f565b6101916102df36600461216e565b610622565b61019161077e565b6101916102fa3660046121a3565b610791565b61029961030d3660046121bc565b610907565b6003546001600160a01b031661026e565b61019161033136600461221c565b610bf0565b610191610344366004612260565b610c01565b610191610357366004611e5f565b610c10565b61019161036a3660046121a3565b610da7565b61016e61037d36600461227a565b610e65565b6101916103903660046122ab565b610e92565b6101916103a33660046121a3565b610ef1565b5f818152602081815260408083206001600160a01b03861684529091529020545b92915050565b5f6001600160e01b03198216636cdb3d1360e11b14806103ff57506001600160e01b031982166303a24d0760e21b145b806103c957506301ffc9a760e01b6001600160e01b03198316146103c9565b610426610f2b565b61042f81610f58565b50565b6060600280546104419061230a565b80601f016020809104026020016040519081016040528092919081815260200182805461046d9061230a565b80156104b85780601f1061048f576101008083540402835291602001916104b8565b820191905f5260205f20905b81548152906001019060200180831161049b57829003601f168201915b50505050509050919050565b336001600160a01b03861681148015906104e557506104e38682610e65565b155b1561051b5760405163711bec9160e11b81526001600160a01b038083166004830152871660248201526044015b60405180910390fd5b6105288686868686610f64565b505050505050565b6005818154811061053f575f80fd5b5f918252602090912001546001600160a01b0316905081565b606081518351146105895781518351604051635b05999160e01b815260048101929092526024820152604401610512565b5f83516001600160401b038111156105a3576105a3611d0e565b6040519080825280602002602001820160405280156105cc578160200160208202803683370190505b5090505f5b845181101561061a576020808202860101516105f5906020808402870101516103a8565b82828151811061060757610607612342565b60209081029190910101526001016105d1565b509392505050565b5f61062c83610fc9565b60028101549091506001600160a01b0316331461067a5760405162461bcd60e51b815260206004820152600c60248201526b155b985d5d1a1bdc9a5cd95960a21b6044820152606401610512565b5f6001820154600160a01b900460ff16600281111561069b5761069b611e78565b146106e85760405162461bcd60e51b815260206004820152601b60248201527f4d61726b65744576656e74206e6f7420696e2070726f677265737300000000006044820152606401610512565b805442600160401b9091046001600160401b031611156107415760405162461bcd60e51b815260206004820152601460248201527326b0b935b2ba22bb32b73a103737ba1037bb32b960611b6044820152606401610512565b8161074d576002610750565b60015b60018201805460ff60a01b1916600160a01b83600281111561077457610774611e78565b0217905550505050565b610786610f2b565b61078f5f611043565b565b610799610f2b565b6001600160a01b0381165f9081526004602052604090205460ff166107ea5760405162461bcd60e51b81526020600482015260076024820152664d697373696e6760c81b6044820152606401610512565b6001600160a01b0381165f908152600460205260408120805460ff19169055805b60055481101561085b57826001600160a01b03166005828154811061083257610832612342565b5f918252602090912001546001600160a01b0316036108535780915061085b565b60010161080b565b506005805461086c9060019061236a565b8154811061087c5761087c612342565b5f91825260209091200154600580546001600160a01b0390921691839081106108a7576108a7612342565b905f5260205f20015f6101000a8154816001600160a01b0302191690836001600160a01b0316021790555060058054806108e3576108e361237d565b5f8281526020902081015f1990810180546001600160a01b03191690550190555050565b5f630ee6b280836001600160501b031610156109575760405162461bcd60e51b815260206004820152600f60248201526e4e6f7420656e6f756768205553444360881b6044820152606401610512565b42846001600160401b031610156109a55760405162461bcd60e51b815260206004820152601260248201527110d85b9b9bdd08195b99081a5b881c185cdd60721b6044820152606401610512565b335f9081526004602052604090205460ff166109f55760405162461bcd60e51b815260206004820152600f60248201526e139bdd081dda1a5d195b1a5cdd1959608a1b6044820152606401610512565b600780546001600160501b0316905f610a0d83612391565b91906101000a8154816001600160501b0302191690836001600160501b03160217905550604051806101000160405280426001600160401b03168152602001866001600160401b03168152602001856001600160501b0316815260200160016001600160501b0316815260200160016001600160501b031681526020015f6002811115610a9c57610a9c611e78565b81525f6020808301829052336040938401526001600160501b03858116835260068252918390208451815492860151948601516001600160401b039182166fffffffffffffffffffffffffffffffff1990941693909317600160401b91909516029390931769ffffffffffffffffffff60801b1916600160801b91831691909102178255606083015160018301805460808601519284166001600160a01b031990911617600160501b92909316919091029190911780825560a0840151919060ff60a01b1916600160a01b836002811115610b7957610b79611e78565b021790555060c082015160018201805469ffffffffffffffffffff60a81b1916600160a81b6001600160501b039093169290920291909117905560e090910151600290910180546001600160a01b0319166001600160a01b03909216919091179055610be786828686611094565b95945050505050565b610bfc33848484611094565b505050565b610c0c3383836112ba565b5050565b5f610c1a82610fc9565b90505f6001820154600160a01b900460ff166002811115610c3d57610c3d611e78565b03610c8a5760405162461bcd60e51b815260206004820152601760248201527f4d61726b65744576656e7420696e2070726f67726573730000000000000000006044820152606401610512565b5f600180830154600160a01b900460ff166002811115610cac57610cac611e78565b14610cc857600183901b6a01fffffffffffffffffffe16610cd1565b610cd18361134e565b90505f610cde33836103a8565b9050805f03610d1d5760405162461bcd60e51b815260206004820152600b60248201526a4e6f2077696e6e696e677360a81b6044820152606401610512565b60018301545f90610d3f908390600160a81b90046001600160501b03166123b6565b9050610d4c338484611369565b610d573033836113cf565b604080513381526001600160501b03871660208201529081018290527f1a660fe47e12a9977e3a47ca075a1e91ffbecec3c23c07917846dffc525b63879060600160405180910390a15050505050565b610daf610f2b565b6001600160a01b0381165f9081526004602052604090205460ff1615610e005760405162461bcd60e51b815260206004820152600660248201526545786973747360d01b6044820152606401610512565b6001600160a01b03165f818152600460205260408120805460ff191660019081179091556005805491820181559091527f036b6384b5eca791c62761152d0c79bb0604c104a5fb6f4eb0703f3154bb3db00180546001600160a01b0319169091179055565b6001600160a01b039182165f90815260016020908152604080832093909416825291909152205460ff1690565b336001600160a01b0386168114801590610eb35750610eb18682610e65565b155b15610ee45760405163711bec9160e11b81526001600160a01b03808316600483015287166024820152604401610512565b61052886868686866114a7565b610ef9610f2b565b6001600160a01b038116610f2257604051631e4fbdf760e01b81525f6004820152602401610512565b61042f81611043565b6003546001600160a01b0316331461078f5760405163118cdaa760e01b8152336004820152602401610512565b6002610c0c8282612411565b6001600160a01b038416610f8d57604051632bfa23e760e11b81525f6004820152602401610512565b6001600160a01b038516610fb557604051626a0d4560e21b81525f6004820152602401610512565b610fc28585858585611533565b5050505050565b6007545f906001600160501b03908116908316106110295760405162461bcd60e51b815260206004820152601a60248201527f4d61726b65744576656e7420646f6573206e6f742065786973740000000000006044820152606401610512565b506001600160501b03165f90815260066020526040902090565b600380546001600160a01b038381166001600160a01b0319831681179093556040519116919082907f8be0079c531659141344cd1fd0a4f28419497f9722a3daafe3b4186f6b6457e0905f90a35050565b5f61109e84610fc9565b805490915042600160401b9091046001600160401b0316116110f85760405162461bcd60e51b815260206004820152601360248201527226b0b935b2ba22bb32b73a1034b99037bb32b960691b6044820152606401610512565b61110c8530856001600160501b03166113cf565b5f6111178284611586565b90505f61112485836124cc565b90505f8461114357600187901b6a01fffffffffffffffffffe1661114c565b61114c8761134e565b604080515f81526020810190915290915061117590899083906001600160501b03861690611822565b835486908590601090611199908490600160801b90046001600160501b03166124f7565b92506101000a8154816001600160501b0302191690836001600160501b03160217905550841561120b576001840180548391905f906111e29084906001600160501b03166124f7565b92506101000a8154816001600160501b0302191690836001600160501b03160217905550611256565b8184600101600a8282829054906101000a90046001600160501b031661123191906124f7565b92506101000a8154816001600160501b0302191690836001600160501b031602179055505b604080516001600160a01b038a1681526001600160501b038981166020830152881681830152861515606082015290517f95352b17d36533a234f674b6b8ef69d8ae7042175cb98282c8b51178f20ac2fb9181900360800190a15050505050505050565b6001600160a01b0382166112e25760405162ced3e160e81b81525f6004820152602401610512565b6001600160a01b038381165f81815260016020908152604080832094871680845294825291829020805460ff191686151590811790915591519182527f17307eab39ab6107e8899845ad3d59bd9653f200f220920489ca2b5937696c31910160405180910390a3505050565b5f6001826001600160501b0316901b60016103c9919061251e565b6001600160a01b03831661139157604051626a0d4560e21b81525f6004820152602401610512565b604080516001808252602082018590528183019081526060820184905260a082019092525f60808201818152919291610fc291879185908590611533565b6040516323b872dd60e01b81526001600160a01b03808516600483015283166024820152604481018290525f9073833589fcd6edb6e08f4c7c32d4f71b54bda02913906323b872dd906064016020604051808303815f875af1158015611437573d5f803e3d5ffd5b505050506040513d601f19601f8201168201806040525081019061145b9190612531565b9050806114a15760405162461bcd60e51b81526020600482015260146024820152731554d110c81d1c985b9cd9995c8819985a5b195960621b6044820152606401610512565b50505050565b6001600160a01b0384166114d057604051632bfa23e760e11b81525f6004820152602401610512565b6001600160a01b0385166114f857604051626a0d4560e21b81525f6004820152602401610512565b6040805160018082526020820186905281830190815260608201859052608082019092529061152a8787848487611533565b50505050505050565b61153f8585858561187d565b6001600160a01b03841615610fc257825133906001036115785760208481015190840151611571838989858589611a8c565b5050610528565b610528818787878787611bad565b81545f9081906115a9906001600160401b0380821691600160401b90041661254c565b84549091505f906115c3906001600160401b03164261254c565b90505f6115d08383612580565b9050677fffffffffffffff600184901c166001600160401b038316115f81611618576115fd600484612781565b611608906008612798565b61161390600161254c565b61163a565b600461162584600161254c565b61162f9190612781565b61163a906008612798565b6001600160401b031690505f87611665576001890154600160501b90046001600160501b0316611674565b60018901546001600160501b03165b6001600160501b031690505f886116985760018a01546001600160501b03166116ae565b60018a0154600160501b90046001600160501b03165b6001600160501b03169050818111156116f95760405162461bcd60e51b815260206004820152600d60248201526c496e76616c696420737461746560981b6044820152606401610512565b5f818311156117115761170c83836127bb565b61171b565b61171b82846127bb565b90505f600261172b83600161236a565b61173591906127ce565b61174083600161236a565b61174a919061251e565b6117559060026123b6565b90505f611763600289612781565b6001600160401b0316611776848461251e565b61178091906123b6565b6117936001600160401b038a16846123b6565b61179d908561251e565b6117a7919061236a565b90505f848611156117cc57836117bd83896123b6565b6117c791906127bb565b6117e1565b816117d785896123b6565b6117e191906127bb565b905084861161180e5760018110156117fa5760016117fc565b805b9b5050505050505050505050506103c9565b60019b5050505050505050505050506103c9565b6001600160a01b03841661184b57604051632bfa23e760e11b81525f6004820152602401610512565b604080516001808252602082018690528183019081526060820185905260808201909252906105285f87848487611533565b80518251146118ac5781518151604051635b05999160e01b815260048101929092526024820152604401610512565b335f5b83518110156119ae576020818102858101820151908501909101516001600160a01b03881615611960575f828152602081815260408083206001600160a01b038c1684529091529020548181101561193a576040516303dee4c560e01b81526001600160a01b038a166004820152602481018290526044810183905260648101849052608401610512565b5f838152602081815260408083206001600160a01b038d16845290915290209082900390555b6001600160a01b038716156119a4575f828152602081815260408083206001600160a01b038b1684529091528120805483929061199e90849061251e565b90915550505b50506001016118af565b508251600103611a2e5760208301515f906020840151909150856001600160a01b0316876001600160a01b0316846001600160a01b03167fc3d58168c5ae7397731d063d5bbf3d657854427343f4c083240f7aacaa2d0f628585604051611a1f929190918252602082015260400190565b60405180910390a45050610fc2565b836001600160a01b0316856001600160a01b0316826001600160a01b03167f4a39dc06d4c0dbc64b70af90fd698a233a518aa5d07e595d983b8c0526c8f7fb8686604051611a7d9291906127dc565b60405180910390a45050505050565b6001600160a01b0384163b156105285760405163f23a6e6160e01b81526001600160a01b0385169063f23a6e6190611ad09089908990889088908890600401612800565b6020604051808303815f875af1925050508015611b0a575060408051601f3d908101601f19168201909252611b0791810190612844565b60015b611b71573d808015611b37576040519150601f19603f3d011682016040523d82523d5f602084013e611b3c565b606091505b5080515f03611b6957604051632bfa23e760e11b81526001600160a01b0386166004820152602401610512565b805181602001fd5b6001600160e01b0319811663f23a6e6160e01b1461152a57604051632bfa23e760e11b81526001600160a01b0386166004820152602401610512565b6001600160a01b0384163b156105285760405163bc197c8160e01b81526001600160a01b0385169063bc197c8190611bf1908990899088908890889060040161285f565b6020604051808303815f875af1925050508015611c2b575060408051601f3d908101601f19168201909252611c2891810190612844565b60015b611c58573d808015611b37576040519150601f19603f3d011682016040523d82523d5f602084013e611b3c565b6001600160e01b0319811663bc197c8160e01b1461152a57604051632bfa23e760e11b81526001600160a01b0386166004820152602401610512565b80356001600160a01b0381168114611caa575f80fd5b919050565b5f8060408385031215611cc0575f80fd5b611cc983611c94565b946020939093013593505050565b6001600160e01b03198116811461042f575f80fd5b5f60208284031215611cfc575f80fd5b8135611d0781611cd7565b9392505050565b634e487b7160e01b5f52604160045260245ffd5b604051601f8201601f191681016001600160401b0381118282101715611d4a57611d4a611d0e565b604052919050565b5f6001600160401b03831115611d6a57611d6a611d0e565b611d7d601f8401601f1916602001611d22565b9050828152838383011115611d90575f80fd5b828260208301375f602084830101529392505050565b5f60208284031215611db6575f80fd5b81356001600160401b03811115611dcb575f80fd5b8201601f81018413611ddb575f80fd5b611dea84823560208401611d52565b949350505050565b5f60208284031215611e02575f80fd5b5035919050565b5f81518084528060208401602086015e5f602082860101526020601f19601f83011685010191505092915050565b602081525f611d076020830184611e09565b80356001600160501b0381168114611caa575f80fd5b5f60208284031215611e6f575f80fd5b611d0782611e49565b634e487b7160e01b5f52602160045260245ffd5b6001600160401b038981168252881660208201526001600160501b0387811660408301528681166060830152858116608083015261010082019060038610611ee257634e487b7160e01b5f52602160045260245ffd5b60a08301959095529290931660c08401526001600160a01b031660e09092019190915295945050505050565b5f6001600160401b03821115611f2657611f26611d0e565b5060051b60200190565b5f82601f830112611f3f575f80fd5b81356020611f54611f4f83611f0e565b611d22565b8083825260208201915060208460051b870101935086841115611f75575f80fd5b602086015b84811015611f915780358352918301918301611f7a565b509695505050505050565b5f82601f830112611fab575f80fd5b611d0783833560208501611d52565b5f805f805f60a08688031215611fce575f80fd5b611fd786611c94565b9450611fe560208701611c94565b935060408601356001600160401b0380821115612000575f80fd5b61200c89838a01611f30565b94506060880135915080821115612021575f80fd5b61202d89838a01611f30565b93506080880135915080821115612042575f80fd5b5061204f88828901611f9c565b9150509295509295909350565b5f806040838503121561206d575f80fd5b82356001600160401b0380821115612083575f80fd5b818501915085601f830112612096575f80fd5b813560206120a6611f4f83611f0e565b82815260059290921b840181019181810190898411156120c4575f80fd5b948201945b838610156120e9576120da86611c94565b825294820194908201906120c9565b965050860135925050808211156120fe575f80fd5b5061210b85828601611f30565b9150509250929050565b5f815180845260208085019450602084015f5b8381101561214457815187529582019590820190600101612128565b509495945050505050565b602081525f611d076020830184612115565b801515811461042f575f80fd5b5f806040838503121561217f575f80fd5b61218883611e49565b9150602083013561219881612161565b809150509250929050565b5f602082840312156121b3575f80fd5b611d0782611c94565b5f805f80608085870312156121cf575f80fd5b6121d885611c94565b935060208501356001600160401b03811681146121f3575f80fd5b925061220160408601611e49565b9150606085013561221181612161565b939692955090935050565b5f805f6060848603121561222e575f80fd5b61223784611e49565b925061224560208501611e49565b9150604084013561225581612161565b809150509250925092565b5f8060408385031215612271575f80fd5b61218883611c94565b5f806040838503121561228b575f80fd5b61229483611c94565b91506122a260208401611c94565b90509250929050565b5f805f805f60a086880312156122bf575f80fd5b6122c886611c94565b94506122d660208701611c94565b9350604086013592506060860135915060808601356001600160401b038111156122fe575f80fd5b61204f88828901611f9c565b600181811c9082168061231e57607f821691505b60208210810361233c57634e487b7160e01b5f52602260045260245ffd5b50919050565b634e487b7160e01b5f52603260045260245ffd5b634e487b7160e01b5f52601160045260245ffd5b818103818111156103c9576103c9612356565b634e487b7160e01b5f52603160045260245ffd5b5f6001600160501b038083168181036123ac576123ac612356565b6001019392505050565b80820281158282048414176103c9576103c9612356565b601f821115610bfc57805f5260205f20601f840160051c810160208510156123f25750805b601f840160051c820191505b81811015610fc2575f81556001016123fe565b81516001600160401b0381111561242a5761242a611d0e565b61243e81612438845461230a565b846123cd565b602080601f831160018114612471575f841561245a5750858301515b5f19600386901b1c1916600185901b178555610528565b5f85815260208120601f198616915b8281101561249f57888601518255948401946001909101908401612480565b50858210156124bc57878501515f19600388901b60f8161c191681555b5050505050600190811b01905550565b6001600160501b038181168382160280821691908281146124ef576124ef612356565b505092915050565b6001600160501b0381811683821601908082111561251757612517612356565b5092915050565b808201808211156103c9576103c9612356565b5f60208284031215612541575f80fd5b8151611d0781612161565b6001600160401b0382811682821603908082111561251757612517612356565b634e487b7160e01b5f52601260045260245ffd5b5f6001600160401b03808416806125995761259961256c565b92169190910492915050565b600181815b808511156125e557816001600160401b03048211156125cb576125cb612356565b808516156125d857918102915b93841c93908002906125aa565b509250929050565b600181815b808511156125e557815f190482111561260d5761260d612356565b8085161561261a57918102915b93841c93908002906125f2565b5f82612635575060016103c9565b8161264157505f6103c9565b8160018114612657576002811461266157612695565b60019150506103c9565b60ff84111561267257612672612356565b6001841b91506001600160401b0382111561268f5761268f612356565b506103c9565b5060208310610133831016604e8410600b84101617156126cf575081810a6001600160401b038111156126ca576126ca612356565b6103c9565b6126d983836125a5565b806001600160401b03048211156126f2576126f2612356565b029392505050565b5f82612708575060016103c9565b8161271457505f6103c9565b816001811461265757600281036127415760ff84111561273657612736612356565b50506001821b6103c9565b5060208310610133831016604e8410600b8410161715612764575081810a6103c9565b61276e83836125ed565b805f19048211156126f2576126f2612356565b5f611d0760ff84166001600160401b038416612627565b6001600160401b038181168382160280821691908281146124ef576124ef612356565b5f826127c9576127c961256c565b500490565b5f611d0760ff8416836126fa565b604081525f6127ee6040830185612115565b8281036020840152610be78185612115565b6001600160a01b03868116825285166020820152604081018490526060810183905260a0608082018190525f9061283990830184611e09565b979650505050505050565b5f60208284031215612854575f80fd5b8151611d0781611cd7565b6001600160a01b0386811682528516602082015260a0604082018190525f9061288a90830186612115565b828103606084015261289c8186612115565b905082810360808401526128b08185611e09565b9897505050505050505056fea264697066735822122056296a53e3a664284b925cd0865de925902c9dd2bb556e511594d9675f427c6064736f6c6343000819003368747470733a2f2f6170702e736f72697465732e78797a2f6170692f76312f746f6b656e732f7b69647d2e6a736f6e",
    "sourcePath": "/Users/mieszkokycermann/Desktop/contract/contracts/Sorites.sol",
    "compiler": {
        "name": "solc",
        "version": "0.8.25+commit.b61c2a91"
    },
    "functionHashes": {
        "addFuturesContract(address)": "ce191e75",
        "balanceOf(address,uint256)": "00fdd58e",
        "balanceOfBatch(address[],uint256[])": "4e1273f4",
        "collectWinnings(uint80)": "c04eb566",
        "createMarketEvent(address,uint64,uint80,bool)": "79addc39",
        "futuresContractWhitelistAddresses(uint256)": "335b5570",
        "isApprovedForAll(address,address)": "e985e9c5",
        "marketEvents(uint80)": "1981063f",
        "mintMarketEventTokens(uint80,uint80,bool)": "934996d8",
        "nextMarketEventId()": "4d9fe185",
        "owner()": "8da5cb5b",
        "removeFuturesContract(address)": "76f25f35",
        "renounceOwnership()": "715018a6",
        "resolveMarketEvent(uint80,bool)": "5881f9df",
        "safeBatchTransferFrom(address,address,uint256[],uint256[],bytes)": "2eb2c2d6",
        "safeTransferFrom(address,address,uint256,uint256,bytes)": "f242432a",
        "setApprovalForAll(address,bool)": "a22cb465",
        "setURI(string)": "02fe5305",
        "supportsInterface(bytes4)": "01ffc9a7",
        "transferOwnership(address)": "f2fde38b",
        "uri(uint256)": "0e89341c"
    },
    "gasEstimates": {
        "creation": {
            "codeDepositCost": "2096400",
            "executionCost": "infinite",
            "totalCost": "infinite"
        },
        "external": {
            "addFuturesContract(address)": "77527",
            "balanceOf(address,uint256)": "2657",
            "balanceOfBatch(address[],uint256[])": "infinite",
            "collectWinnings(uint80)": "infinite",
            "createMarketEvent(address,uint64,uint80,bool)": "infinite",
            "futuresContractWhitelistAddresses(uint256)": "4656",
            "isApprovedForAll(address,address)": "infinite",
            "marketEvents(uint80)": "7369",
            "mintMarketEventTokens(uint80,uint80,bool)": "infinite",
            "nextMarketEventId()": "2403",
            "owner()": "2419",
            "removeFuturesContract(address)": "infinite",
            "renounceOwnership()": "infinite",
            "resolveMarketEvent(uint80,bool)": "33587",
            "safeBatchTransferFrom(address,address,uint256[],uint256[],bytes)": "infinite",
            "safeTransferFrom(address,address,uint256,uint256,bytes)": "infinite",
            "setApprovalForAll(address,bool)": "26707",
            "setURI(string)": "infinite",
            "supportsInterface(bytes4)": "575",
            "transferOwnership(address)": "28465",
            "uri(uint256)": "infinite"
        },
        "internal": {
            "_mintMarketEventTokens(address,uint80,uint80,bool)": "infinite",
            "calculateMintAmountPerUSDC(struct MarketEvent storage pointer,bool)": "infinite",
            "getMarketEvent(uint80)": "infinite",
            "getNoTokenId(uint80)": "infinite",
            "getYesTokenId(uint80)": "infinite",
            "moveUSDC(address,address,uint256)": "infinite"
        }
    }
}