{
    "contractName": "SoritesPriceFuturesProvider",
    "abi": [
        {
            "inputs": [
                {
                    "internalType": "address",
                    "name": "initialConsumerAddress",
                    "type": "address"
                }
            ],
            "stateMutability": "nonpayable",
            "type": "constructor"
        },
        {
            "anonymous": false,
            "inputs": [
                {
                    "indexed": true,
                    "internalType": "address",
                    "name": "from",
                    "type": "address"
                },
                {
                    "indexed": true,
                    "internalType": "address",
                    "name": "to",
                    "type": "address"
                }
            ],
            "name": "OwnershipTransferRequested",
            "type": "event"
        },
        {
            "anonymous": false,
            "inputs": [
                {
                    "indexed": true,
                    "internalType": "address",
                    "name": "from",
                    "type": "address"
                },
                {
                    "indexed": true,
                    "internalType": "address",
                    "name": "to",
                    "type": "address"
                }
            ],
            "name": "OwnershipTransferred",
            "type": "event"
        },
        {
            "inputs": [],
            "name": "acceptOwnership",
            "outputs": [],
            "stateMutability": "nonpayable",
            "type": "function"
        },
        {
            "inputs": [
                {
                    "internalType": "string",
                    "name": "asset",
                    "type": "string"
                },
                {
                    "internalType": "address",
                    "name": "oracleAddress",
                    "type": "address"
                }
            ],
            "name": "addSupportedAsset",
            "outputs": [],
            "stateMutability": "nonpayable",
            "type": "function"
        },
        {
            "inputs": [
                {
                    "internalType": "string",
                    "name": "",
                    "type": "string"
                }
            ],
            "name": "chainlinkPriceOracles",
            "outputs": [
                {
                    "internalType": "address",
                    "name": "",
                    "type": "address"
                }
            ],
            "stateMutability": "view",
            "type": "function"
        },
        {
            "inputs": [],
            "name": "consumerAddress",
            "outputs": [
                {
                    "internalType": "address",
                    "name": "",
                    "type": "address"
                }
            ],
            "stateMutability": "view",
            "type": "function"
        },
        {
            "inputs": [
                {
                    "internalType": "string",
                    "name": "asset",
                    "type": "string"
                },
                {
                    "internalType": "uint8",
                    "name": "metric",
                    "type": "uint8"
                },
                {
                    "internalType": "int80[]",
                    "name": "values",
                    "type": "int80[]"
                },
                {
                    "internalType": "uint64",
                    "name": "endTime",
                    "type": "uint64"
                },
                {
                    "internalType": "uint80",
                    "name": "usdcToDeposit",
                    "type": "uint80"
                },
                {
                    "internalType": "bool",
                    "name": "speculatingOnYes",
                    "type": "bool"
                }
            ],
            "name": "createMarketEvent",
            "outputs": [
                {
                    "internalType": "uint80",
                    "name": "",
                    "type": "uint80"
                }
            ],
            "stateMutability": "nonpayable",
            "type": "function"
        },
        {
            "inputs": [],
            "name": "getLabel",
            "outputs": [
                {
                    "internalType": "string",
                    "name": "",
                    "type": "string"
                }
            ],
            "stateMutability": "pure",
            "type": "function"
        },
        {
            "inputs": [
                {
                    "internalType": "uint80",
                    "name": "marketEventId",
                    "type": "uint80"
                }
            ],
            "name": "getMarketEventName",
            "outputs": [
                {
                    "internalType": "string",
                    "name": "",
                    "type": "string"
                }
            ],
            "stateMutability": "view",
            "type": "function"
        },
        {
            "inputs": [
                {
                    "internalType": "uint80",
                    "name": "marketEventId",
                    "type": "uint80"
                }
            ],
            "name": "getMarketEventNameVariables",
            "outputs": [
                {
                    "components": [
                        {
                            "internalType": "string",
                            "name": "format",
                            "type": "string"
                        },
                        {
                            "internalType": "string",
                            "name": "text",
                            "type": "string"
                        },
                        {
                            "internalType": "int256",
                            "name": "value",
                            "type": "int256"
                        }
                    ],
                    "internalType": "struct LabelVariable[]",
                    "name": "",
                    "type": "tuple[]"
                }
            ],
            "stateMutability": "view",
            "type": "function"
        },
        {
            "inputs": [],
            "name": "getSupportedAssets",
            "outputs": [
                {
                    "internalType": "string[]",
                    "name": "",
                    "type": "string[]"
                }
            ],
            "stateMutability": "view",
            "type": "function"
        },
        {
            "inputs": [],
            "name": "getSupportedMetrics",
            "outputs": [
                {
                    "components": [
                        {
                            "internalType": "uint8",
                            "name": "metricId",
                            "type": "uint8"
                        },
                        {
                            "internalType": "string",
                            "name": "name",
                            "type": "string"
                        },
                        {
                            "internalType": "string[]",
                            "name": "valueLabels",
                            "type": "string[]"
                        }
                    ],
                    "internalType": "struct SupportedMetric[]",
                    "name": "",
                    "type": "tuple[]"
                }
            ],
            "stateMutability": "pure",
            "type": "function"
        },
        {
            "inputs": [],
            "name": "owner",
            "outputs": [
                {
                    "internalType": "address",
                    "name": "",
                    "type": "address"
                }
            ],
            "stateMutability": "view",
            "type": "function"
        },
        {
            "inputs": [
                {
                    "internalType": "uint80",
                    "name": "marketEventId",
                    "type": "uint80"
                },
                {
                    "internalType": "uint80",
                    "name": "aggregatorRoundId",
                    "type": "uint80"
                }
            ],
            "name": "resolveMarketEvent",
            "outputs": [],
            "stateMutability": "nonpayable",
            "type": "function"
        },
        {
            "inputs": [
                {
                    "internalType": "uint256",
                    "name": "",
                    "type": "uint256"
                }
            ],
            "name": "supportedAssets",
            "outputs": [
                {
                    "internalType": "string",
                    "name": "",
                    "type": "string"
                }
            ],
            "stateMutability": "view",
            "type": "function"
        },
        {
            "inputs": [
                {
                    "internalType": "address",
                    "name": "to",
                    "type": "address"
                }
            ],
            "name": "transferOwnership",
            "outputs": [],
            "stateMutability": "nonpayable",
            "type": "function"
        }
    ],
    "bytecode": "608060405234801561000f575f80fd5b50604051611cd5380380611cd583398101604081905261002e9161018d565b33805f816100835760405162461bcd60e51b815260206004820152601860248201527f43616e6e6f7420736574206f776e657220746f207a65726f000000000000000060448201526064015b60405180910390fd5b5f80546001600160a01b0319166001600160a01b03848116919091179091558116156100b2576100b2816100e5565b5050600580546001600160a01b039093166001600160a01b031993841681179091556006805490931617909155506101ba565b336001600160a01b0382160361013d5760405162461bcd60e51b815260206004820152601760248201527f43616e6e6f74207472616e7366657220746f2073656c66000000000000000000604482015260640161007a565b600180546001600160a01b0319166001600160a01b038381169182179092555f8054604051929316917fed8889f560326eb138920d842192f0eb3dd22b4f139c87a2c57538e05bae12789190a350565b5f6020828403121561019d575f80fd5b81516001600160a01b03811681146101b3575f80fd5b9392505050565b611b0e806101c75f395ff3fe608060405234801561000f575f80fd5b50600436106100e5575f3560e01c8063af33a17b11610088578063dbc2d04211610063578063dbc2d0421461022b578063e056de271461023e578063e5406dbf14610251578063f2fde38b14610266575f80fd5b8063af33a17b146101e5578063c68dbb37146101f8578063c6ebd3921461020b575f80fd5b806379ba5097116100c357806379ba5097146101685780638da5cb5b146101705780639554c1241461018057806396b65773146101ba575f80fd5b8063236126b2146100e95780633c0b9ec1146101075780636f685e7514610153575b5f80fd5b6100f1610279565b6040516100fe91906111ec565b60405180910390f35b61013b6101153660046112ce565b80516020818301810180516002825292820191909301209152546001600160a01b031681565b6040516001600160a01b0390911681526020016100fe565b61016661016136600461139d565b610396565b005b61016661059b565b5f546001600160a01b031661013b565b6040805180820190915260158152745072696365206f6e2061206675747572652064617960581b60208201525b6040516100fe91906113d4565b6101cd6101c8366004611458565b610644565b6040516001600160501b0390911681526020016100fe565b6101ad6101f3366004611539565b6109bb565b6101ad610206366004611554565b610a46565b61021e610219366004611539565b610aec565b6040516100fe919061156b565b60055461013b906001600160a01b031681565b61016661024c366004611612565b610c20565b610259610db3565b6040516100fe9190611662565b6101666102743660046116c4565b610e87565b6060806060604051806040016040528060048152602001635553444360e01b815250815f815181106102ad576102ad6116dd565b60200260200101819052506040518060600160405280600160ff16815260200160405180604001604052806012815260200171283934b1b29034b9903632b9b9903a3430b760711b815250815260200182815250825f81518110610313576103136116dd565b60200260200101819052506040518060600160405280600260ff1681526020016040518060400160405280601e81526020017f5072696365206973206d6f7265207468616e206f7220657175616c20746f000081525081526020018281525082600181518110610385576103856116dd565b602090810291909101015250919050565b6001600160501b0382165f908152600760205260409020805460ff166103d75760405162461bcd60e51b81526004016103ce906116f1565b60405180910390fd5b5f6002826001016040516103eb9190611754565b908152604051908190036020019020546001600160a01b03169050806104235760405162461bcd60e51b81526004016103ce906116f1565b600282015481905f9061044890600160581b900467ffffffffffffffff168684610e9b565b60028501549091505f9060ff165f190161047a575060028401546001600160501b0380831661010090920416106104de565b600285015460ff16600119016104a9575060028401546001600160501b038083166101009092041610156104de565b60405162461bcd60e51b815260206004820152600a602482015269426164206d657472696360b01b60448201526064016103ce565b600654604051635881f9df60e01b81526001600160501b038916600482015282151560248201526001600160a01b0390911690635881f9df906044015f604051808303815f87803b158015610531575f80fd5b505af1158015610543573d5f803e3d5ffd5b5050506001600160501b0388165f908152600760205260408120805460ff1916815591506105746001830182611174565b50600201805472ffffffffffffffffffffffffffffffffffffff1916905550505050505050565b6001546001600160a01b031633146105ee5760405162461bcd60e51b815260206004820152601660248201527526bab9ba10313290383937b837b9b2b21037bbb732b960511b60448201526064016103ce565b5f8054336001600160a01b0319808316821784556001805490911690556040516001600160a01b0390921692909183917f8be0079c531659141344cd1fd0a4f28419497f9722a3daafe3b4186f6b6457e091a350565b5f60ff87166001148061065a575060ff87166002145b6106935760405162461bcd60e51b815260206004820152600a602482015269426164206d657472696360b01b60448201526064016103ce565b600389896040516106a59291906117c6565b9081526040519081900360200190205460ff166106f05760405162461bcd60e51b815260206004820152600960248201526810985908185cdcd95d60ba1b60448201526064016103ce565b6001851461072d5760405162461bcd60e51b815260206004820152600a6024820152694261642076616c75657360b01b60448201526064016103ce565b600186865f818110610741576107416116dd565b905060200201602081019061075691906117d5565b60090b12156107935760405162461bcd60e51b81526020600482015260096024820152684261642076616c756560b81b60448201526064016103ce565b6006546040516379addc3960e01b815233600482015267ffffffffffffffff861660248201526001600160501b038516604482015283151560648201525f916001600160a01b0316906379addc39906084016020604051808303815f875af1158015610801573d5f803e3d5ffd5b505050506040513d601f19601f8201168201806040525081019061082591906117f5565b6001600160501b0381165f9081526007602052604090205490915060ff161561087b5760405162461bcd60e51b81526020600482015260086024820152674578697374696e6760c01b60448201526064016103ce565b6040518060a001604052806001151581526020018b8b8080601f0160208091040260200160405190810160405280939291908181526020018383808284375f92018290525093855250505060ff8b16602083015260409091019089908990816108e6576108e66116dd565b90506020020160208101906108fb91906117d5565b6001600160501b03908116825267ffffffffffffffff881660209283015283165f90815260078252604090208251815460ff1916901515178155908201516001820190610948908261185c565b50604082015160029091018054606084015160809094015167ffffffffffffffff16600160581b0267ffffffffffffffff60581b196001600160501b03909516610100026affffffffffffffffffffff1990921660ff909416939093171792909216179055905098975050505050505050565b6001600160501b0381165f90815260076020526040902080546060919060ff166109f75760405162461bcd60e51b81526004016103ce906116f1565b600281015460ff165f1901610a2657604051806060016040528060338152602001611aa6603391399392505050565b604051806060016040528060318152602001611a75603191399392505050565b60048181548110610a55575f80fd5b905f5260205f20015f915090508054610a6d9061171c565b80601f0160208091040260200160405190810160405280929190818152602001828054610a999061171c565b8015610ae45780601f10610abb57610100808354040283529160200191610ae4565b820191905f5260205f20905b815481529060010190602001808311610ac757829003601f168201915b505050505081565b6001600160501b0381165f90815260076020526040902080546060919060ff16610b285760405162461bcd60e51b81526004016103ce906116f1565b6060604051806060016040528060405180604001604052806006815260200165737472696e6760d01b8152508152602001604051806040016040528060058152602001641054d4d15560da1b81525081526020015f815250815f81518110610b9257610b926116dd565b6020908102919091018101919091526040805160a081018252600460608201908152637573646360e01b6080830152815281518083018352600581526456414c554560d81b8185015292810192909252600284015461010090046001600160501b031690820152815182906001908110610c0e57610c0e6116dd565b60209081029190910101529392505050565b610c28611078565b5f6001600160a01b031660028484604051610c449291906117c6565b908152604051908190036020019020546001600160a01b031614610c935760405162461bcd60e51b815260206004820152600660248201526545786973747360d01b60448201526064016103ce565b5f819050806001600160a01b03166354fd4d506040518163ffffffff1660e01b8152600401602060405180830381865afa158015610cd3573d5f803e3d5ffd5b505050506040513d601f19601f82011682018060405250810190610cf7919061191c565b50600480546001810182555f919091527f8a35acfbc15ff81a39ae7d344fd709f28e8600b4aa8c65c6b64bfe7fe36bd19b01610d34848683611933565b508160028585604051610d489291906117c6565b90815260200160405180910390205f6101000a8154816001600160a01b0302191690836001600160a01b03160217905550600160038585604051610d8d9291906117c6565b908152604051908190036020019020805491151560ff1990921691909117905550505050565b60606004805480602002602001604051908101604052809291908181526020015f905b82821015610e7e578382905f5260205f20018054610df39061171c565b80601f0160208091040260200160405190810160405280929190818152602001828054610e1f9061171c565b8015610e6a5780601f10610e4157610100808354040283529160200191610e6a565b820191905f5260205f20905b815481529060010190602001808311610e4d57829003601f168201915b505050505081526020019060010190610dd6565b50505050905090565b610e8f611078565b610e98816110cc565b50565b604051639a6fc8f560e01b81526001600160501b03831660048201525f90819081906001600160a01b03851690639a6fc8f59060240160a060405180830381865afa158015610eec573d5f803e3d5ffd5b505050506040513d601f19601f82011682018060405250810190610f1091906119ed565b509350509250505f846001600160a01b0316639a6fc8f5600188610f349190611a41565b6040516001600160e01b031960e084901b1681526001600160501b03909116600482015260240160a060405180830381865afa158015610f76573d5f803e3d5ffd5b505050506040513d601f19601f82011682018060405250810190610f9a91906119ed565b509350505050866001600160501b0316821015610fe95760405162461bcd60e51b815260206004820152600d60248201526c42616420726f756e642028312960981b60448201526064016103ce565b866001600160501b031681106110315760405162461bcd60e51b815260206004820152600d60248201526c42616420726f756e642028322960981b60448201526064016103ce565b5f831261106d5760405162461bcd60e51b815260206004820152600a6024820152692130b21030b739bbb2b960b11b60448201526064016103ce565b509095945050505050565b5f546001600160a01b031633146110ca5760405162461bcd60e51b815260206004820152601660248201527527b7363c9031b0b63630b1363290313c9037bbb732b960511b60448201526064016103ce565b565b336001600160a01b038216036111245760405162461bcd60e51b815260206004820152601760248201527f43616e6e6f74207472616e7366657220746f2073656c6600000000000000000060448201526064016103ce565b600180546001600160a01b0319166001600160a01b038381169182179092555f8054604051929316917fed8889f560326eb138920d842192f0eb3dd22b4f139c87a2c57538e05bae12789190a350565b5080546111809061171c565b5f825580601f1061118f575050565b601f0160209004905f5260205f2090810190610e9891905b808211156111ba575f81556001016111a7565b5090565b5f81518084528060208401602086015e5f602082860101526020601f19601f83011685010191505092915050565b602080825282518282018190525f919060409081850190600581811b87018401888601875b848110156112ab57603f198a84030186528151606060ff825116855289820151818b870152611242828701826111be565b928a0151868403878c01528051808552908c019392508b8301915080881b83018c015f5b8281101561129457601f198583030184526112828287516111be565b958e0195938e01939150600101611266565b50998c019996505050928901925050600101611211565b50909998505050505050505050565b634e487b7160e01b5f52604160045260245ffd5b5f602082840312156112de575f80fd5b813567ffffffffffffffff808211156112f5575f80fd5b818401915084601f830112611308575f80fd5b81358181111561131a5761131a6112ba565b604051601f8201601f19908116603f01168101908382118183101715611342576113426112ba565b8160405282815287602084870101111561135a575f80fd5b826020860160208301375f928101602001929092525095945050505050565b6001600160501b0381168114610e98575f80fd5b803561139881611379565b919050565b5f80604083850312156113ae575f80fd5b82356113b981611379565b915060208301356113c981611379565b809150509250929050565b602081525f6113e660208301846111be565b9392505050565b5f8083601f8401126113fd575f80fd5b50813567ffffffffffffffff811115611414575f80fd5b60208301915083602082850101111561142b575f80fd5b9250929050565b803567ffffffffffffffff81168114611398575f80fd5b80358015158114611398575f80fd5b5f805f805f805f8060c0898b03121561146f575f80fd5b883567ffffffffffffffff80821115611486575f80fd5b6114928c838d016113ed565b909a50985060208b0135915060ff821682146114ac575f80fd5b90965060408a013590808211156114c1575f80fd5b818b0191508b601f8301126114d4575f80fd5b8135818111156114e2575f80fd5b8c60208260051b85010111156114f6575f80fd5b60208301975080965050505061150e60608a01611432565b925061151c60808a0161138d565b915061152a60a08a01611449565b90509295985092959890939650565b5f60208284031215611549575f80fd5b81356113e681611379565b5f60208284031215611564575f80fd5b5035919050565b5f60208083018184528085518083526040925060408601915060408160051b8701018488015f5b838110156115ee57603f198984030185528151606081518186526115b8828701826111be565b915050888201518582038a8701526115d082826111be565b92890151958901959095525094870194925090860190600101611592565b509098975050505050505050565b80356001600160a01b0381168114611398575f80fd5b5f805f60408486031215611624575f80fd5b833567ffffffffffffffff81111561163a575f80fd5b611646868287016113ed565b90945092506116599050602085016115fc565b90509250925092565b5f60208083016020845280855180835260408601915060408160051b8701019250602087015f5b828110156116b757603f198886030184526116a58583516111be565b94509285019290850190600101611689565b5092979650505050505050565b5f602082840312156116d4575f80fd5b6113e6826115fc565b634e487b7160e01b5f52603260045260245ffd5b602080825260119082015270109859081b585c9ad95d115d995b9d1259607a1b604082015260600190565b600181811c9082168061173057607f821691505b60208210810361174e57634e487b7160e01b5f52602260045260245ffd5b50919050565b5f8083546117618161171c565b60018281168015611779576001811461178e576117ba565b60ff19841687528215158302870194506117ba565b875f526020805f205f5b858110156117b15781548a820152908401908201611798565b50505082870194505b50929695505050505050565b818382375f9101908152919050565b5f602082840312156117e5575f80fd5b81358060090b81146113e6575f80fd5b5f60208284031215611805575f80fd5b81516113e681611379565b601f82111561185757805f5260205f20601f840160051c810160208510156118355750805b601f840160051c820191505b81811015611854575f8155600101611841565b50505b505050565b815167ffffffffffffffff811115611876576118766112ba565b61188a81611884845461171c565b84611810565b602080601f8311600181146118bd575f84156118a65750858301515b5f19600386901b1c1916600185901b178555611914565b5f85815260208120601f198616915b828110156118eb578886015182559484019460019091019084016118cc565b508582101561190857878501515f19600388901b60f8161c191681555b505060018460011b0185555b505050505050565b5f6020828403121561192c575f80fd5b5051919050565b67ffffffffffffffff83111561194b5761194b6112ba565b61195f83611959835461171c565b83611810565b5f601f841160018114611990575f85156119795750838201355b5f19600387901b1c1916600186901b178355611854565b5f83815260208120601f198716915b828110156119bf578685013582556020948501946001909201910161199f565b50868210156119db575f1960f88860031b161c19848701351681555b505060018560011b0183555050505050565b5f805f805f60a08688031215611a01575f80fd5b8551611a0c81611379565b809550506020860151935060408601519250606086015191506080860151611a3381611379565b809150509295509295909350565b6001600160501b03828116828216039080821115611a6d57634e487b7160e01b5f52601160045260245ffd5b509291505056fe5072696365206f662041535345542077696c6c2062652056414c5545206f72206d6f7265206f6e20454e445f444154452e5072696365206f662041535345542077696c6c206265206c657373207468616e2056414c5545206f6e20454e445f444154452ea264697066735822122089a68a6679563decd884dbd414c0268701b637498188c1f4b76dd928f2bd801d64736f6c63430008190033",
    "sourcePath": "/Users/mieszkokycermann/Desktop/contract/contracts/PriceFutures.sol",
    "compiler": {
        "name": "solc",
        "version": "0.8.25+commit.b61c2a91"
    },
    "functionHashes": {
        "acceptOwnership()": "79ba5097",
        "addSupportedAsset(string,address)": "e056de27",
        "chainlinkPriceOracles(string)": "3c0b9ec1",
        "consumerAddress()": "dbc2d042",
        "createMarketEvent(string,uint8,int80[],uint64,uint80,bool)": "96b65773",
        "getLabel()": "9554c124",
        "getMarketEventName(uint80)": "af33a17b",
        "getMarketEventNameVariables(uint80)": "c6ebd392",
        "getSupportedAssets()": "e5406dbf",
        "getSupportedMetrics()": "236126b2",
        "owner()": "8da5cb5b",
        "resolveMarketEvent(uint80,uint80)": "6f685e75",
        "supportedAssets(uint256)": "c68dbb37",
        "transferOwnership(address)": "f2fde38b"
    },
    "gasEstimates": {
        "creation": {
            "codeDepositCost": "1385200",
            "executionCost": "infinite",
            "totalCost": "infinite"
        },
        "external": {
            "acceptOwnership()": "52320",
            "addSupportedAsset(string,address)": "infinite",
            "chainlinkPriceOracles(string)": "infinite",
            "consumerAddress()": "2358",
            "createMarketEvent(string,uint8,int80[],uint64,uint80,bool)": "infinite",
            "getLabel()": "infinite",
            "getMarketEventName(uint80)": "infinite",
            "getMarketEventNameVariables(uint80)": "infinite",
            "getSupportedAssets()": "infinite",
            "getSupportedMetrics()": "infinite",
            "owner()": "2374",
            "resolveMarketEvent(uint80,uint80)": "infinite",
            "supportedAssets(uint256)": "infinite",
            "transferOwnership(address)": "30520"
        },
        "internal": {
            "getRoundPrice(uint80,uint80,contract AggregatorV3Interface)": "infinite"
        }
    }
}