{
    "contractName": "SoritesPriceFuturesProvider",
    "abi": [
        {
            "inputs": [
                {
                    "internalType": "address",
                    "name": "initialConsumerAddress",
                    "type": "address"
                }
            ],
            "stateMutability": "nonpayable",
            "type": "constructor"
        },
        {
            "anonymous": false,
            "inputs": [
                {
                    "indexed": true,
                    "internalType": "address",
                    "name": "from",
                    "type": "address"
                },
                {
                    "indexed": true,
                    "internalType": "address",
                    "name": "to",
                    "type": "address"
                }
            ],
            "name": "OwnershipTransferRequested",
            "type": "event"
        },
        {
            "anonymous": false,
            "inputs": [
                {
                    "indexed": true,
                    "internalType": "address",
                    "name": "from",
                    "type": "address"
                },
                {
                    "indexed": true,
                    "internalType": "address",
                    "name": "to",
                    "type": "address"
                }
            ],
            "name": "OwnershipTransferred",
            "type": "event"
        },
        {
            "inputs": [],
            "name": "acceptOwnership",
            "outputs": [],
            "stateMutability": "nonpayable",
            "type": "function"
        },
        {
            "inputs": [
                {
                    "internalType": "string",
                    "name": "asset",
                    "type": "string"
                },
                {
                    "internalType": "address",
                    "name": "oracleAddress",
                    "type": "address"
                }
            ],
            "name": "addSupportedAsset",
            "outputs": [],
            "stateMutability": "nonpayable",
            "type": "function"
        },
        {
            "inputs": [
                {
                    "internalType": "string",
                    "name": "",
                    "type": "string"
                }
            ],
            "name": "chainlinkPriceOracles",
            "outputs": [
                {
                    "internalType": "address",
                    "name": "",
                    "type": "address"
                }
            ],
            "stateMutability": "view",
            "type": "function"
        },
        {
            "inputs": [],
            "name": "consumerAddress",
            "outputs": [
                {
                    "internalType": "address",
                    "name": "",
                    "type": "address"
                }
            ],
            "stateMutability": "view",
            "type": "function"
        },
        {
            "inputs": [
                {
                    "internalType": "string",
                    "name": "asset",
                    "type": "string"
                },
                {
                    "internalType": "uint8",
                    "name": "metric",
                    "type": "uint8"
                },
                {
                    "internalType": "uint80",
                    "name": "value",
                    "type": "uint80"
                },
                {
                    "internalType": "uint64",
                    "name": "endTime",
                    "type": "uint64"
                },
                {
                    "internalType": "uint80",
                    "name": "usdcToDeposit",
                    "type": "uint80"
                },
                {
                    "internalType": "bool",
                    "name": "speculatingOnYes",
                    "type": "bool"
                }
            ],
            "name": "createMarketEvent",
            "outputs": [
                {
                    "internalType": "uint80",
                    "name": "",
                    "type": "uint80"
                }
            ],
            "stateMutability": "nonpayable",
            "type": "function"
        },
        {
            "inputs": [],
            "name": "getLabel",
            "outputs": [
                {
                    "internalType": "string",
                    "name": "",
                    "type": "string"
                }
            ],
            "stateMutability": "pure",
            "type": "function"
        },
        {
            "inputs": [],
            "name": "getSupportedAssets",
            "outputs": [
                {
                    "internalType": "string[]",
                    "name": "",
                    "type": "string[]"
                }
            ],
            "stateMutability": "view",
            "type": "function"
        },
        {
            "inputs": [],
            "name": "getSupportedMetrics",
            "outputs": [
                {
                    "components": [
                        {
                            "internalType": "uint8",
                            "name": "metricId",
                            "type": "uint8"
                        },
                        {
                            "internalType": "string",
                            "name": "name",
                            "type": "string"
                        }
                    ],
                    "internalType": "struct FuturesProviderSupportedMetric[]",
                    "name": "",
                    "type": "tuple[]"
                }
            ],
            "stateMutability": "pure",
            "type": "function"
        },
        {
            "inputs": [],
            "name": "owner",
            "outputs": [
                {
                    "internalType": "address",
                    "name": "",
                    "type": "address"
                }
            ],
            "stateMutability": "view",
            "type": "function"
        },
        {
            "inputs": [
                {
                    "internalType": "uint80",
                    "name": "marketEventId",
                    "type": "uint80"
                },
                {
                    "internalType": "uint80",
                    "name": "aggregatorRoundId",
                    "type": "uint80"
                }
            ],
            "name": "resolveMarketEvent",
            "outputs": [],
            "stateMutability": "nonpayable",
            "type": "function"
        },
        {
            "inputs": [
                {
                    "internalType": "uint256",
                    "name": "",
                    "type": "uint256"
                }
            ],
            "name": "supportedAssets",
            "outputs": [
                {
                    "internalType": "string",
                    "name": "",
                    "type": "string"
                }
            ],
            "stateMutability": "view",
            "type": "function"
        },
        {
            "inputs": [
                {
                    "internalType": "address",
                    "name": "to",
                    "type": "address"
                }
            ],
            "name": "transferOwnership",
            "outputs": [],
            "stateMutability": "nonpayable",
            "type": "function"
        }
    ],
    "bytecode": "608060405234801561000f575f80fd5b5060405161181738038061181783398101604081905261002e9161018d565b33805f816100835760405162461bcd60e51b815260206004820152601860248201527f43616e6e6f7420736574206f776e657220746f207a65726f000000000000000060448201526064015b60405180910390fd5b5f80546001600160a01b0319166001600160a01b03848116919091179091558116156100b2576100b2816100e5565b5050600580546001600160a01b039093166001600160a01b031993841681179091556006805490931617909155506101ba565b336001600160a01b0382160361013d5760405162461bcd60e51b815260206004820152601760248201527f43616e6e6f74207472616e7366657220746f2073656c66000000000000000000604482015260640161007a565b600180546001600160a01b0319166001600160a01b038381169182179092555f8054604051929316917fed8889f560326eb138920d842192f0eb3dd22b4f139c87a2c57538e05bae12789190a350565b5f6020828403121561019d575f80fd5b81516001600160a01b03811681146101b3575f80fd5b9392505050565b611650806101c75f395ff3fe608060405234801561000f575f80fd5b50600436106100b1575f3560e01c80639554c1241161006e5780639554c12414610177578063c68dbb37146101b1578063dbc2d042146101c4578063e056de27146101d7578063e5406dbf146101ea578063f2fde38b146101ff575f80fd5b8063236126b2146100b55780633c0b9ec1146100d35780633e18f9601461011f5780636f685e751461014a57806379ba50971461015f5780638da5cb5b14610167575b5f80fd5b6100bd610212565b6040516100ca9190610f42565b60405180910390f35b6101076100e1366004610fcd565b80516020818301810180516002825292820191909301209152546001600160a01b031681565b6040516001600160a01b0390911681526020016100ca565b61013261012d3660046110d1565b6102e6565b6040516001600160501b0390911681526020016100ca565b61015d610158366004611181565b6105e3565b005b61015d610827565b5f546001600160a01b0316610107565b6040805180820190915260158152745072696365206f6e2061206675747572652064617960581b60208201525b6040516100ca91906111b8565b6101a46101bf3660046111d1565b6108d0565b600554610107906001600160a01b031681565b61015d6101e5366004611203565b610976565b6101f2610b09565b6040516100ca9190611253565b61015d61020d3660046112b5565b610bdd565b6060806040518060400160405280600160ff16815260200160405180604001604052806012815260200171283934b1b29034b9903632b9b9903a3430b760711b815250815250815f8151811061026a5761026a6112ce565b60200260200101819052506040518060400160405280600260ff1681526020016040518060400160405280601e81526020017f5072696365206973206d6f7265207468616e206f7220657175616c20746f0000815250815250816001815181106102d6576102d66112ce565b6020908102919091010152919050565b5f60ff8616600114806102fc575060ff86166002145b61033a5760405162461bcd60e51b815260206004820152600a602482015269426164206d657472696360b01b60448201526064015b60405180910390fd5b6003888860405161034c9291906112e2565b9081526040519081900360200190205460ff166103975760405162461bcd60e51b815260206004820152600960248201526810985908185cdcd95d60ba1b6044820152606401610331565b6001856001600160501b031610156103dd5760405162461bcd60e51b81526020600482015260096024820152684261642076616c756560b81b6044820152606401610331565b6006546040516379addc3960e01b815233600482015267ffffffffffffffff861660248201526001600160501b038516604482015283151560648201525f916001600160a01b0316906379addc39906084016020604051808303815f875af115801561044b573d5f803e3d5ffd5b505050506040513d601f19601f8201168201806040525081019061046f91906112f1565b6001600160501b0381165f9081526007602052604090205490915060ff16156104c55760405162461bcd60e51b81526020600482015260086024820152674578697374696e6760c01b6044820152606401610331565b6040518060a001604052806001151581526020018a8a8080601f0160208091040260200160405190810160405280939291908181526020018383808284375f92018290525093855250505060ff8a166020808401919091526001600160501b038a811660408086019190915267ffffffffffffffff8b1660609095019490945285168252600781529190208251815460ff19169015151781559082015160018201906105719082611390565b50604082015160029091018054606084015160809094015167ffffffffffffffff16600160581b0267ffffffffffffffff60581b196001600160501b03909516610100026affffffffffffffffffffff1990921660ff9094169390931717929092161790559050979650505050505050565b6001600160501b0382165f908152600760205260409020805460ff1661063f5760405162461bcd60e51b8152602060048201526011602482015270109859081b585c9ad95d115d995b9d1259607a1b6044820152606401610331565b5f6002826001016040516106539190611450565b908152604051908190036020019020546001600160a01b03169050806106af5760405162461bcd60e51b8152602060048201526011602482015270109859081b585c9ad95d115d995b9d1259607a1b6044820152606401610331565b600282015481905f906106d490600160581b900467ffffffffffffffff168684610bf1565b60028501549091505f9060ff165f1901610706575060028401546001600160501b03808316610100909204161061076a565b600285015460ff1660011901610735575060028401546001600160501b0380831661010090920416101561076a565b60405162461bcd60e51b815260206004820152600a602482015269426164206d657472696360b01b6044820152606401610331565b600654604051635881f9df60e01b81526001600160501b038916600482015282151560248201526001600160a01b0390911690635881f9df906044015f604051808303815f87803b1580156107bd575f80fd5b505af11580156107cf573d5f803e3d5ffd5b5050506001600160501b0388165f908152600760205260408120805460ff1916815591506108006001830182610eca565b50600201805472ffffffffffffffffffffffffffffffffffffff1916905550505050505050565b6001546001600160a01b0316331461087a5760405162461bcd60e51b815260206004820152601660248201527526bab9ba10313290383937b837b9b2b21037bbb732b960511b6044820152606401610331565b5f8054336001600160a01b0319808316821784556001805490911690556040516001600160a01b0390921692909183917f8be0079c531659141344cd1fd0a4f28419497f9722a3daafe3b4186f6b6457e091a350565b600481815481106108df575f80fd5b905f5260205f20015f9150905080546108f79061130c565b80601f01602080910402602001604051908101604052809291908181526020018280546109239061130c565b801561096e5780601f106109455761010080835404028352916020019161096e565b820191905f5260205f20905b81548152906001019060200180831161095157829003601f168201915b505050505081565b61097e610dce565b5f6001600160a01b03166002848460405161099a9291906112e2565b908152604051908190036020019020546001600160a01b0316146109e95760405162461bcd60e51b815260206004820152600660248201526545786973747360d01b6044820152606401610331565b5f819050806001600160a01b03166354fd4d506040518163ffffffff1660e01b8152600401602060405180830381865afa158015610a29573d5f803e3d5ffd5b505050506040513d601f19601f82011682018060405250810190610a4d91906114c2565b50600480546001810182555f919091527f8a35acfbc15ff81a39ae7d344fd709f28e8600b4aa8c65c6b64bfe7fe36bd19b01610a8a8486836114d9565b508160028585604051610a9e9291906112e2565b90815260200160405180910390205f6101000a8154816001600160a01b0302191690836001600160a01b03160217905550600160038585604051610ae39291906112e2565b908152604051908190036020019020805491151560ff1990921691909117905550505050565b60606004805480602002602001604051908101604052809291908181526020015f905b82821015610bd4578382905f5260205f20018054610b499061130c565b80601f0160208091040260200160405190810160405280929190818152602001828054610b759061130c565b8015610bc05780601f10610b9757610100808354040283529160200191610bc0565b820191905f5260205f20905b815481529060010190602001808311610ba357829003601f168201915b505050505081526020019060010190610b2c565b50505050905090565b610be5610dce565b610bee81610e22565b50565b604051639a6fc8f560e01b81526001600160501b03831660048201525f90819081906001600160a01b03851690639a6fc8f59060240160a060405180830381865afa158015610c42573d5f803e3d5ffd5b505050506040513d601f19601f82011682018060405250810190610c669190611593565b509350509250505f846001600160a01b0316639a6fc8f5600188610c8a91906115e7565b6040516001600160e01b031960e084901b1681526001600160501b03909116600482015260240160a060405180830381865afa158015610ccc573d5f803e3d5ffd5b505050506040513d601f19601f82011682018060405250810190610cf09190611593565b509350505050866001600160501b0316821015610d3f5760405162461bcd60e51b815260206004820152600d60248201526c42616420726f756e642028312960981b6044820152606401610331565b866001600160501b03168110610d875760405162461bcd60e51b815260206004820152600d60248201526c42616420726f756e642028322960981b6044820152606401610331565b5f8312610dc35760405162461bcd60e51b815260206004820152600a6024820152692130b21030b739bbb2b960b11b6044820152606401610331565b509095945050505050565b5f546001600160a01b03163314610e205760405162461bcd60e51b815260206004820152601660248201527527b7363c9031b0b63630b1363290313c9037bbb732b960511b6044820152606401610331565b565b336001600160a01b03821603610e7a5760405162461bcd60e51b815260206004820152601760248201527f43616e6e6f74207472616e7366657220746f2073656c660000000000000000006044820152606401610331565b600180546001600160a01b0319166001600160a01b038381169182179092555f8054604051929316917fed8889f560326eb138920d842192f0eb3dd22b4f139c87a2c57538e05bae12789190a350565b508054610ed69061130c565b5f825580601f10610ee5575050565b601f0160209004905f5260205f2090810190610bee91905b80821115610f10575f8155600101610efd565b5090565b5f81518084528060208401602086015e5f602082860101526020601f19601f83011685010191505092915050565b5f60208083018184528085518083526040925060408601915060408160051b8701018488015f5b83811015610fab57888303603f190185528151805160ff168452870151878401879052610f9887850182610f14565b9588019593505090860190600101610f69565b509098975050505050505050565b634e487b7160e01b5f52604160045260245ffd5b5f60208284031215610fdd575f80fd5b813567ffffffffffffffff80821115610ff4575f80fd5b818401915084601f830112611007575f80fd5b81358181111561101957611019610fb9565b604051601f8201601f19908116603f0116810190838211818310171561104157611041610fb9565b81604052828152876020848701011115611059575f80fd5b826020860160208301375f928101602001929092525095945050505050565b5f8083601f840112611088575f80fd5b50813567ffffffffffffffff81111561109f575f80fd5b6020830191508360208285010111156110b6575f80fd5b9250929050565b6001600160501b0381168114610bee575f80fd5b5f805f805f805f60c0888a0312156110e7575f80fd5b873567ffffffffffffffff808211156110fe575f80fd5b61110a8b838c01611078565b909950975060208a0135915060ff82168214611124575f80fd5b909550604089013590611136826110bd565b909450606089013590808216821461114c575f80fd5b509250608088013561115d816110bd565b915060a08801358015158114611171575f80fd5b8091505092959891949750929550565b5f8060408385031215611192575f80fd5b823561119d816110bd565b915060208301356111ad816110bd565b809150509250929050565b602081525f6111ca6020830184610f14565b9392505050565b5f602082840312156111e1575f80fd5b5035919050565b80356001600160a01b03811681146111fe575f80fd5b919050565b5f805f60408486031215611215575f80fd5b833567ffffffffffffffff81111561122b575f80fd5b61123786828701611078565b909450925061124a9050602085016111e8565b90509250925092565b5f60208083016020845280855180835260408601915060408160051b8701019250602087015f5b828110156112a857603f19888603018452611296858351610f14565b9450928501929085019060010161127a565b5092979650505050505050565b5f602082840312156112c5575f80fd5b6111ca826111e8565b634e487b7160e01b5f52603260045260245ffd5b818382375f9101908152919050565b5f60208284031215611301575f80fd5b81516111ca816110bd565b600181811c9082168061132057607f821691505b60208210810361133e57634e487b7160e01b5f52602260045260245ffd5b50919050565b601f82111561138b57805f5260205f20601f840160051c810160208510156113695750805b601f840160051c820191505b81811015611388575f8155600101611375565b50505b505050565b815167ffffffffffffffff8111156113aa576113aa610fb9565b6113be816113b8845461130c565b84611344565b602080601f8311600181146113f1575f84156113da5750858301515b5f19600386901b1c1916600185901b178555611448565b5f85815260208120601f198616915b8281101561141f57888601518255948401946001909101908401611400565b508582101561143c57878501515f19600388901b60f8161c191681555b505060018460011b0185555b505050505050565b5f80835461145d8161130c565b60018281168015611475576001811461148a576114b6565b60ff19841687528215158302870194506114b6565b875f526020805f205f5b858110156114ad5781548a820152908401908201611494565b50505082870194505b50929695505050505050565b5f602082840312156114d2575f80fd5b5051919050565b67ffffffffffffffff8311156114f1576114f1610fb9565b611505836114ff835461130c565b83611344565b5f601f841160018114611536575f851561151f5750838201355b5f19600387901b1c1916600186901b178355611388565b5f83815260208120601f198716915b828110156115655786850135825560209485019460019092019101611545565b5086821015611581575f1960f88860031b161c19848701351681555b505060018560011b0183555050505050565b5f805f805f60a086880312156115a7575f80fd5b85516115b2816110bd565b8095505060208601519350604086015192506060860151915060808601516115d9816110bd565b809150509295509295909350565b6001600160501b0382811682821603908082111561161357634e487b7160e01b5f52601160045260245ffd5b509291505056fea26469706673582212203e37561158e32a3cc72ea6d7d646b3fcc8e7f89e93037999d26e1ea99391f28764736f6c63430008190033",
    "sourcePath": "/Users/mieszkokycermann/Desktop/contract/contracts/PriceFutures.sol",
    "compiler": {
        "name": "solc",
        "version": "0.8.25+commit.b61c2a91"
    },
    "functionHashes": {
        "acceptOwnership()": "79ba5097",
        "addSupportedAsset(string,address)": "e056de27",
        "chainlinkPriceOracles(string)": "3c0b9ec1",
        "consumerAddress()": "dbc2d042",
        "createMarketEvent(string,uint8,uint80,uint64,uint80,bool)": "3e18f960",
        "getLabel()": "9554c124",
        "getSupportedAssets()": "e5406dbf",
        "getSupportedMetrics()": "236126b2",
        "owner()": "8da5cb5b",
        "resolveMarketEvent(uint80,uint80)": "6f685e75",
        "supportedAssets(uint256)": "c68dbb37",
        "transferOwnership(address)": "f2fde38b"
    },
    "gasEstimates": {
        "creation": {
            "codeDepositCost": "1142400",
            "executionCost": "infinite",
            "totalCost": "infinite"
        },
        "external": {
            "acceptOwnership()": "52386",
            "addSupportedAsset(string,address)": "infinite",
            "chainlinkPriceOracles(string)": "infinite",
            "consumerAddress()": "2380",
            "createMarketEvent(string,uint8,uint80,uint64,uint80,bool)": "infinite",
            "getLabel()": "infinite",
            "getSupportedAssets()": "infinite",
            "getSupportedMetrics()": "infinite",
            "owner()": "2440",
            "resolveMarketEvent(uint80,uint80)": "infinite",
            "supportedAssets(uint256)": "infinite",
            "transferOwnership(address)": "30542"
        },
        "internal": {
            "getRoundPrice(uint80,uint80,contract AggregatorV3Interface)": "infinite"
        }
    }
}